:020000040800F2
:10000000900700209101000807120008291100083C
:1000100005120008BF060008C51700080000000010
:100020000000000000000000000000007B14000839
:100030003907000800000000791400087D1400084A
:10004000AB010008AB010008AB010008AB010008E0
:10005000AB010008AB010008AB010008AB010008D0
:10006000AB010008AB010008AB010008AB010008C0
:10007000AB010008AB010008AB010008AB010008B0
:10008000AB010008AB010008AB010008AB010008A0
:10009000AB010008AB010008AB010008AB01000890
:1000A000AB010008AB010008AB010008AB01000880
:1000B000AB010008AB010008AB010008AB01000870
:1000C000AB010008AB010008AB010008AB01000860
:1000D000AB010008AB010008AB010008AB01000850
:1000E000AB010008AB010008AB01000800F002F80A
:1000F00000F03FF80AA090E8000C82448344AAF183
:100100000107DA4501D100F034F8AFF2090EBAE880
:100110000F0013F0010F18BFFB1A43F0010318473B
:10012000C41D0000E41D0000103A24BF78C878C147
:10013000FAD8520724BF30C830C144BF04680C60ED
:10014000704700000023002400250026103A28BF35
:1001500078C1FBD8520728BF30C148BF0B60704739
:10016000782900F07180002070471FB51FBD10B5C1
:1001700010BD00F06AFA1146FFF7F7FF01F03AFBF5
:1001800000F088FA03B4FFF7F2FF03BC00F090FA26
:100190000948804709480047FEE7FEE7FEE7FEE71B
:1001A000FEE7FEE7FEE7FEE7FEE7FEE70448054957
:1001B000054A064B70470000D9140008ED000008FE
:1001C0009001002090070020900300209003002061
:1001D0000FB41CB5074B06AA7B44694600900598EE
:1001E00000F0E9F90020694600F0F8F91CBC5DF860
:1001F00014FB00000104000070B504468569006826
:10020000C10601D5302600E02026C00707D070BD0A
:10021000D4E9012130469047206A401C20626D1EBF
:10022000F6D570BD70B5044685690078C00707D162
:1002300070BDD4E9012120209047206A401C206233
:100240006D1EF6D570BD000070B504460D46214602
:100250001068AFF300802188090502D50F4A7A445F
:1002600002E00E4A7A440E32002104F1240305E034
:1002700000F00F060009965D5E54491C0028F7D176
:1002800020780023000704D5702D02D009B1022385
:1002900011322046BDE8704000F02FB9481C000024
:1002A0002DE9F05F894604464FF0000ADFF824B1DB
:1002B000FB44C0F820A02046E168884700287DD094
:1002C000252806D0D4E901219047206A401C2062ED
:1002D000F1E700255F462046E1688847202806466A
:1002E00007DB312E05D2B81910F8200C08B10543F0
:1002F000F1E7A80701D525F00405C4F81CA00027E4
:10030000C4F818A02A2E09D0304601F06CFA38B390
:1003100004EB8708303EC8F8186019E059F8041B50
:10032000204604EB87029161E1688847012F064669
:1003300018D1E069002820DA25F020051DE0D8F862
:10034000180000EB800006EB40003038C8F81800B9
:100350002046E1688847064601F045FA0028EED1BC
:10036000012F0AD02E2E08D12046E16888477F1C35
:100370000646022F45F02005C4DBA069002803DAF9
:10038000404245F00105A061E80701D025F01005C5
:10039000A6B1A6F14100192802D8203645F400651F
:1003A0004A463146204625604D46FFF7D9FE60B1EA
:1003B000012807D0ED1D25F0070000E007E000F15F
:1003C000080978E705F1040975E730467AE7206AFD
:1003D000BDE8F09F1E1C0000032A40F2308010F0A0
:1003E000030C00F0158011F8013BBCF1020F6244D0
:1003F00098BF11F801CB00F8013B38BF11F8013B61
:10040000A2F1040298BF00F801CB38BF00F8013B0D
:1004100011F0030300F0E780083AC0F0088051F8BB
:10042000043B083A51F804CBA0E80810F5E7121D88
:100430005CBF51F8043B40F8043BAFF30080D207A7
:1004400024BF11F8013B11F801CB48BF11F8012B73
:1004500024BF00F8013B00F801CB48BF00F8012B96
:1004600070474FF000020429C0F0128010F0030C16
:1004700000F01B80CCF1040CBCF1020F18BF00F897
:10048000012BA8BF20F8022BA1EB0C0100F00DB846
:100490005FEAC17C24BF00F8012B00F8012B48BFA4
:1004A00000F8012B70474FF0000200B51346944648
:1004B0009646203922BFA0E80C50A0E80C50B1F1BC
:1004C0002001BFF4F7AF090728BFA0E80C5048BFD0
:1004D0000CC05DF804EB890028BF40F8042B08BF6E
:1004E000704748BF20F8022B11F0804F18BF00F86A
:1004F000012B70477047704770472DE9F0470D4654
:1005000099469246044600F124080168880604D5FD
:10051000E06921F01001216000E00120A84201DD26
:10052000471B00E00027A1697A1902EB0900081AAD
:10053000A0612078C00602D42046FFF75DFE0026A9
:1005400008E0D4E901211AF806009047206A401C0F
:10055000761C20624E45F4DB2078C0060AD5204682
:10056000FFF74AFE06E0D4E9012130209047206AD7
:10057000401C2062381EA7F10107F4DC07E0D4E933
:10058000012118F805009047206A401C2062281EAF
:10059000A5F10105F3DC2046FFF744FE20780006B4
:1005A00002D50220BDE8F0870120FBE701694A1C63
:1005B00002610878704700B58FB0CDE901310021A4
:1005C000059105497944CDE9031011466846FFF7C6
:1005D00067FE0FB000BD0000E5FFFFFF0A6802F8EC
:1005E000010B0A60704710B5203AC0F00B80B1E8EB
:1005F0001850203AA0E81850B1E81850A0E8185058
:10060000BFF4F5AF5FEA027C24BFB1E81850A0E860
:10061000185044BF18C918C0BDE810405FEA827C7A
:1006200024BF51F8043B40F8043B08BF7047D20791
:1006300028BF31F8023B48BF11F8012B28BF20F832
:10064000023B48BF00F8012B7047754600F02CF8BC
:10065000AE4605006946534620F00700854618B0AF
:1006600020B5FFF7A3FDBDE820404FF000064FF096
:1006700000074FF000084FF0000B21F00701AC46D7
:10068000ACE8C009ACE8C009ACE8C009ACE8C009F6
:100690008D46704710B50446AFF300802046BDE894
:1006A0001040FFF76FBD0000004870473001002088
:1006B00001491820ABBEFEE7260002007047FEE7A6
:1006C00070B54FF48051184800F04CF9174C0546AE
:1006D0006078854202D000F04FF9A06000F04CF93C
:1006E000A168401A32281DD9DDB92078C8B10F4859
:1006F0000021801C425C521C4254491CC9B204298E
:10070000F8D30B490420A1F84000A1F10A00D4F865
:100710000210C0F80A100649064800F024FF01F054
:1007200005F82570657070BD0008014000000020CC
:10073000A6000020E80000207047000000F064FDE3
:1007400003A20121022000F051FE72B6FEE7000074
:100750004572726F72204F63637572726564000038
:1007600070B5044600F008F90546601C02D0044844
:100770000078044400F000F9401BA042FAD370BD99
:100780000C0000202DE9F84FDFF8B8910024A9F102
:10079000040B23460F2709F1040AABF1040EC9E04C
:1007A0000125A5402A40AA427DD1674ED1F804C058
:1007B000ACEB0608B44532D014DCBCF1030F3AD0E0
:1007C00009DCBCF1000F2AD0BCF1010F1CD0BCF138
:1007D000020F31D11DE0BCF1110F17D0BCF1120F87
:1007E0002AD119E0B8F5881F19D006DCB8F5803F8A
:1007F00015D0B8F5801F1FD111E0B8F5001F0ED03D
:10080000B8F5041F18D10AE0CB6815E0CB681B1DB2
:1008100012E0CB6808330FE0CB680C330CE08B6838
:100820002BB1012B4FF0080303D0456104E00423F2
:1008300002E0056100E00023FF2A01D8064601E03E
:1008400000F104064FEA840501D9A5F12005D6F888
:10085000008007FA05FC28EA0C0803FA05F548EAC7
:100860000508C6F800804D68ED0062D5374DAE69C9
:1008700046F00106AE61AD6924F0030605F00105FE
:100880000095334D06EB050CDCF80850A607360F33
:1008900007FA06F825EA0805DFF8B880404503D1D5
:1008A0004FF0000817E044E0DFF8AC80404502D18B
:1008B0004FF001080FE0DFF8A480404502D14FF06F
:1008C000020808E0DFF89880404502D14FF00308A5
:1008D00001E04FF0040808FA06F848EA0508CCF8E9
:1008E00008804D68D9F80060ED024D4601D51643E9
:1008F00000E096432E604D68DAF80060AD02554680
:1009000001D5164300E096432E604D68DBF8006089
:10091000AD035D4601D5164300E096432E604D6859
:10092000DEF80060ED03754601D5164300E09643FE
:100930002E60641C0D682A46E5407FF431AFBDE8A7
:10094000F88F000008040140000011100010024060
:100950000000014000080140000C0140001001406F
:10096000001401408068084000D0012070470AB19F
:10097000016170470904FBE7014880687047000087
:100980000C000020024881680278114481607047A1
:100990000C000020074810B5016841F0100101600B
:1009A000032000F067F80F2000F006F800F024F8AC
:1009B000002010BD0020024070B50D4D04464FF4DC
:1009C0007A712878B1FBF0F00A490968B1FBF0F0C0
:1009D00000F0CEFA48B9102C07D200222146501E52
:1009E00000F028F800206C6070BD012070BD000090
:1009F0000C000020180000200C4808B5816941F067
:100A000001018161816901F001010091C16941F039
:100A10008051C161C06900F0805000900448416875
:100A200021F0E06141F00071416008BD001002401A
:100A300000000140F0B40E4B1B680C46C3F30223C8
:100A4000C3F10705042D00D90425191D072901D27A
:100A5000002300E0DB1E012606FA05F1491E2140B5
:100A600099409E40761E16403143F0BC00F0ABBE6C
:100A70000CED00E0064900F0070208684FF6FF039E
:100A8000184040EA0220034A104308607047000003
:100A90000CED00E00000FA052DE9F0470F460500D7
:100AA00061D0434E306800F00700B84209D2306888
:100AB00020F0070038433060306800F00700B8428B
:100AC00051D128683B4C810712D5400703D5606897
:100AD00040F4E06060602878000703D5606840F467
:100AE000605060606068A96820F0F00008436060B2
:100AF0002878C00728D06868012810D0216802280B
:100B000010D0890700292EDA616821F00301014322
:100B10006160FFF731FF804641F288390DE02168BE
:100B20008903EFE78901EDE7FFF726FFA0EB080156
:100B3000494502D90320BDE8F0876068696800F084
:100B40000C00B0EB810FEFD1306800F00700B84225
:100B50000BD9306820F0070038433060306800F06F
:100B60000700B84201D00120E5E72878400705D505
:100B70006068E96820F4E060084360602878000756
:100B800006D56068296920F4605040EAC1006060C1
:100B900000F038F86168084AC1F30311515CC8409D
:100BA0000649086006480068FFF706FF0020C2E714
:100BB0000020024000100240921E00081800002091
:100BC000100000200448054900684968044AC1F340
:100BD0000221515CC84070471800002000100240FC
:100BE000A21E00080448054900684968044AC1F388
:100BF000C221515CC840704718000020001002401C
:100C0000A21E00080E4A51680E4801F00C03042B86
:100C100011D0082B0FD10C48C1F38343C903C05C2A
:100C20000AD55168084AC1F34041921E515C054AF9
:100C30005043B0FBF1F0704704494843704700004F
:100C40000010024000127A00821E000800093D00D8
:100C50002DE9F84F040070D02078C04DC00749D06E
:100C60006868C0F38100012807D06868C0F381007C
:100C7000022809D16868C00306D52868800339D5E1
:100C800060680028E7D035E06068B0F5803F0BD0A1
:100C900010B1B0F5A02F11D0286820F48030286062
:100CA000286820F4802002E0286840F48030286022
:100CB000606890B1FFF760FE06460AE0286840F4DD
:100CC00080202860F0E700BFFFF756FE801B6428F5
:100CD00073D828688003F7D50CE0FFF74DFE064671
:100CE00005E000BFFFF748FE801B6428F0D82868A5
:100CF0008003F7D420789A4E80074FF001094FF017
:100D0000000839D5686810F00C0F07D06868C0F388
:100D10008100022809D16868C00306D428688007CA
:100D200014D52069012808D110E02069B0B1C6F8B7
:100D30000090FFF721FE074605E00AE1FFF71CFEE1
:100D4000C01B0228C4D828688007F7D528686169C5
:100D500020F0F80040EAC10028600DE0C6F80080ED
:100D6000FFF70AFE074604E0FFF706FEC01B022855
:100D700023D828688007F7D4207800072CD5794835
:100D8000A169D9B1C0F80090FFF7F6FD074604E06D
:100D9000FFF7F2FDC01B02280FD8686A8007F7D55D
:100DA00071484FF4FA510068B0FBF1F0009000BFB9
:100DB0000098411E0091FAD20EE080E0C0F8008059
:100DC000FFF7DAFD074604E0FFF7D6FDC01B022857
:100DD00075D8686A8007F7D42078400760D5E8693D
:100DE0000027C00008D4E86940F08050E861E86955
:100DF000012700F0805000905C480168C90513D4B9
:100E00000168834641F480710160FFF7B5FD8246B9
:100E100006E000BFFFF7B0FDA0EB0A0064284ED843
:100E2000DBF80000C005F5D5E06801280AD008B15C
:100E3000052813D0286A20F001002862286A20F0D3
:100E4000040002E0286A40F001002862E06841F2F4
:100E5000883B98B1FFF790FD82460BE0286A40F08E
:100E600004002862EEE700BFFFF786FDA0EB0A0151
:100E700059455AD8286A8007F6D50CE0FFF77CFD63
:100E8000824605E0FFF778FDA0EB0A0159454CD8F2
:100E9000286A8007F6D41FB1E86920F08050E86125
:100EA000E06988B36968C1F38101022944D002284E
:100EB000C6F8608004D0FFF75FFD044638E034E0F8
:100EC000FFF75AFD074604E0FFF756FDC01B022856
:100ED0002BD828688001F7D4206AB0F5803F05D16F
:100EE0006868A16820F4003008436860D4E908010C
:100EF0000843696821F4741108436860C6F860907B
:100F0000FFF73AFD044606E025E000BFFFF734FD99
:100F1000001B022809D828688001F7D51BE000BF14
:100F2000FFF72AFD001B022802D90320BDE8F88F35
:100F300028688001F4D40EE00128F7D06868226A9E
:100F400000F48031914204D1616A00F4701088424B
:100F500001D00120EAE70020E8E70000001002408D
:100F6000000042428004424218000020007000400D
:100F700010B5401EB0F1807F01D3012010BD4FF0AD
:100F8000E02460610F21601700F01DFC0020A061CB
:100F900007202061002010BD70B5040004D094F833
:100FA0004100002510B106E0012070BD84F84050DA
:100FB000204600F023F8242084F841002068C1680E
:100FC00021F40051C160204600F000FB2068016957
:100FD00021F4904101612068416921F02A014161B9
:100FE0002068C16841F40051C1606564202084F824
:100FF000410084F842006563002070BD30B585B0C3
:1010000000240094019402940394006814498842D7
:1010100024D11448816941F480418161816901F4DE
:1010200080410491816941F00401816180690E4D24
:1010300000F0040004904FF4007000900220019032
:101040000320039069462846FFF79CFB2815CDE94D
:101050000004694628460294FFF794FB05B030BDB2
:1010600000380140001002400008014090F8423072
:10107000202B01D00220704721B11AB10023036355
:1010800000F000BB012070472DE9F843044690F8BA
:101090004100984616460D46202802D00220BDE8A1
:1010A000F88385B17EB100206064212084F841007E
:1010B000FFF762FCA6848146E684A0682027B0F58D
:1010C000805F02D003E00120E9E7206910B12E46DD
:1010D00000250EE000260CE08021204600F0EDFA0D
:1010E000A8B9C6B116F8010B21684860E08C401E13
:1010F000E084E08C4B464FF00002CDF800800028E1
:10110000EAD14FF04001204600F0D7FA40B184F810
:1011100041700320C3E735F8020BC0F30800E3E792
:1011200084F841700020BAE7FEE70000F0B585B012
:10113000002423480094019402940394816941F0AF
:1011400010018161816901F010010491816941F010
:1011500020018161816901F020010491816941F0E0
:1011600004018161816901F004010491816941F008
:10117000080181618069134F00F008004FF4407648
:101180000490002231463846FFF7F1FBF0000125BC
:101190008DE8310069460C48FFF7F4FA20208DE80D
:1011A000310069463846FFF7EDFA0220CDE90240EA
:1011B000CDE9006569463846FFF7E4FA05B0F0BDB1
:1011C00000100240000C0140000801400C4810B51E
:1011D0000A4901604FF4E1314160002181600C2235
:1011E000C160C0E904128161C161FFF7D5FE00282A
:1011F00003D0BDE81040FFF7A1BA10BD0038014090
:10120000E8000020FEE7FEE770B50024002120463C
:1012100000F0A6F80025002000F01DF96D1CEDB2CD
:10122000802DF8D3641CE4B2082CEFD370BD10B548
:10123000FFF77CFF012000F0EDF8BDE81040012031
:1012400000F0F0B870B500240546802626FA04F0B8
:10125000284000D0012000F0E5F8012000F0DAF885
:10126000002000F0D7F8641CE4B2082CEED3012073
:1012700000F0D0F8BDE87040002000F0CBB810B509
:10128000012000F0CFF8012000F0C4F8002000F0A9
:10129000C9F8BDE81040002000F0BCB810B500202F
:1012A00000F0C0F8012000F0B5F8BDE810400120C2
:1012B00000F0B8B810B500204FF47A720021491C34
:1012C0009142FCD3401C9042F8D3FFF7B0FFAE2010
:1012D00000F0B0F8D52000F0ADF8802000F0AAF8BA
:1012E000A82000F0A7F83F2000F0A4F8D32000F0D9
:1012F000A1F8002000F09EF8402000F09BF8A1200B
:1013000000F098F8C82000F095F8DA2000F092F884
:10131000122000F08FF8812000F08CF8CF2000F030
:1013200089F8D92000F086F8F12000F083F8DB205E
:1013300000F080F8302000F07DF8A42000F07AF86A
:10134000A62000F077F88D2000F074F8142000F04B
:1013500071F8AF2000F06EF8BDE81040FFF754BF01
:1013600010B50C4640F0B00000F064F8102040EAE0
:10137000141000F05FF804F00F00BDE8104000F01A
:1013800059B800002DE9F0410746CE004000083E64
:10139000801E15464FF0FF38F1B2C0B2FFF7E0FFF4
:1013A0001148002400EB05152819A0F5805090F88D
:1013B000000E00F050F8641CE4B2082CF4D308EBE3
:1013C0004700F1B2C0B2FFF7CBFF00242819A0F507
:1013D000805090F8080E00F03EF8641CE4B2082C2F
:1013E000F4D3BDE8F0810000901800082DE9F04129
:1013F00015460E460746002406E03019C1B23846AD
:10140000FFF7C0FF641CE4B22A5D002AF5D1BDE8F5
:10141000F081000002464FF400710148FFF7A7BABF
:10142000000C014002464FF480710148FFF79FBA5B
:10143000000C014010B50446FFF721FF7820FFF7AC
:1014400001FF0020FFF7FEFE2046FFF7FBFEBDE890
:101450001040FFF723BF10B50446FFF710FF7820B8
:10146000FFF7F0FE4020FFF7EDFE2046FFF7EAFE13
:10147000BDE81040FFF712BF70477047FFF782BA10
:1014800030B58FB028216846FFF70DF814210AA85F
:10149000FFF709F801210804CDE9001000240294A7
:1014A00002250491CDE907504FF4E01009906846F9
:1014B000FFF7CEFB60B90F20CDE90A056802CDE940
:1014C0000C4002210AA80E94FFF7E6FA002801D08A
:1014D000FFF734F90FB030BD704710B503004FF07F
:1014E000000009D0002907D0002203E09C5C604086
:1014F000521C92B28A42F9D310BD01680C3151E8F6
:10150000002F22F4907241E80023002BF5D10168EE
:10151000143151E8002F22F0010241E80023002B92
:10152000F5D1016B012909D101680C3151E8002F77
:1015300022F0100241E80023002BF5D1202180F891
:10154000421000210163704700280BD0002100F8F1
:10155000421B20F8021B20F8021B00F8441940210E
:10156000FEF77FBF704770B592B00C46050004D0FF
:101570001CB1B4F84010402902D9012012B070BD4E
:101580002046FFF7AAFF0646AA208DF8000094F82F
:1015900040008DF80100B4F8402021460DF1020012
:1015A000FEF71AFF34F8401F0DF102004FF0FF3331
:1015B0000E542288401C5521115420886946001D74
:1015C00082B22846FFF760FDD8E7000070B50446F8
:1015D00000680169E26821F4405111430161216909
:1015E000A0680843616908432168CA6841F20C6336
:1015F0009A430243CA6020684169A26921F440719C
:10160000114341611E492068884202D1FFF7EAFA7E
:1016100001E0FFF7D7FA00EBC00101EB00126068B0
:1016200064218000B2FBF0F3B3FBF1F36FF0180616
:101630007343B2FBF0F5B2FBF0F605EB8305322302
:1016400003EB0515B5FBF1F5B6FBF1F605F0F0057A
:1016500005EB0615B2FBF0F6B2FBF0F0B0FBF1F0D3
:101660006FF01802504306EB800003EB0010B0FB54
:10167000F1F0216800F00F002844886070BD000080
:101680000038014081628285C285002141642221A7
:1016900080F84210016921B10168CA6842F4807281
:1016A000CA6001684A6942F001024A610068C16883
:1016B00041F02001C160002070472DE9F8439846B1
:1016C00017460D460446089E24E0701C22D0FFF702
:1016D00053F9A0EB0800B0421AD8CEB12068C16817
:1016E000490717D5802D15D0402D13D00168C94367
:1016F00009070FD401680025406800902046FFF7D5
:10170000FCFE0820606484F840500120BDE8F883A6
:101710000320FBE72068006835EA000004D00020C1
:10172000B842D2D00020F1E70120F9E7F0B51A481D
:101730008BB0C2788178CDE900124378027817A186
:1017400002A8FEF745FD02AA01210220FFF74EFE86
:10175000174DB5F84000E0B1042800D90420C6B206
:10176000202102A8FEF79FFE002402AF08E004EB50
:1017700044002A5D38440FA1FEF72AFD641CE4B240
:10178000B442F4D302AA01210420FFF72FFE0BB0CC
:10179000F0BD0AA2F7E70000020000202530325811
:1017A000202530325820253032582025303258003C
:1017B0006400002025303258200000004E6F206465
:1017C00061746100FEE70907090E002804DB00F1DF
:1017D000E02080F80014704700F00F0000F1E020D6
:1017E00080F8141D704730380A2801D20120704754
:1017F0000020704708B5FFF7CDF8FFF741FEFFF76F
:1018000095FCFFF7E3FCFFF755FDFFF7FDFC012119
:1018100016A20846FFF7EAFD17A201210320FFF7F1
:10182000E5FD1848FFF790FE164904208A31012291
:10183000A1F84000A1F10A001349D1F80210C0F844
:101840000A1069461148FFF711FC08B1FEF776FF50
:10185000FFF76CFF0B490D488A31FFF784FE00BF8C
:10186000FEF72EFF0A20FEF77BFFF9E75478506160
:10187000636B65743A00000052785061636B657465
:101880003A0000001C00002000000020E8000020BA
:101890000000000000000000000000000000000048
:1018A000000000F8000000000000003330000000DD
:1018B00000100C06100C06000000000000000000E4
:1018C00040C07840C0784000043F04043F04040056
:1018D000007088FC08300000001820FF211E000066
:1018E000F008F000E018000000211C031E211E007B
:1018F00000F00888700000001E2123241927211001
:1019000010160E00000000000000000000000000A3
:10191000000000E01804020000000007182040004A
:1019200000020418E000000000402018070000003A
:10193000404080F0804040000202010F010202009E
:10194000000000F0000000000101011F0101010082
:10195000000000000000000080B0700000000000E7
:101960000000000000000000000101010101010170
:101970000000000000000000003030000000000007
:1019800000000000806018040060180601000000DC
:1019900000E010080810E000000F102020100F00D9
:1019A000001010F8000000000020203F2020000060
:1019B00000700808088870000030282422213000B8
:1019C00000300888884830000018202020110E00C0
:1019D0000000C02010F8000000070424243F240069
:1019E00000F80888880808000019212020110E003E
:1019F00000E0108888180000000F112020110E0050
:101A000000380808C83808000000003F0000000047
:101A10000070880808887000001C222121221C0008
:101A200000E010080810E0000000312222110F0031
:101A3000000000C0C00000000000003030000000C6
:101A40000000008000000000000080600000000036
:101A5000000080402010080000010204081020004F
:101A6000404040404040400004040404040404009A
:101A7000000810204080000000201008040201002F
:101A8000007048080808F00000000030360100002F
:101A9000C030C828E810E0000718272423140B00E2
:101AA0000000C038E0000000203C2302022738205C
:101AB00008F8888888700000203F202020110E0040
:101AC000C030080808083800071820202010080037
:101AD00008F808080810E000203F202020100F0020
:101AE00008F88888E8081000203F202023201800EC
:101AF00008F88888E8081000203F20000300000054
:101B0000C03008080838000007182020221E0200F4
:101B100008F808000008F808203F210101213F20B3
:101B2000000808F8080800000020203F20200000DE
:101B300000000808F8080800C08080807F000000CE
:101B400008F888C028180800203F20012638200007
:101B500008F8080000000000203F2020202030006E
:101B600008F8F800F8F80800203F003F003F200088
:101B700008F830C00008F808203F200007183F0090
:101B8000E01008080810E0000F10202020100F00BF
:101B900008F808080808F000203F210101010000B2
:101BA000E01008080810E0000F18242438504F00F7
:101BB00008F8888888887000203F2000030C3020B7
:101BC00000708808080838000038202121221C00F5
:101BD000180808F8080818000000203F200000003E
:101BE00008F808000008F808001F202020201F0027
:101BF0000878880000C83808000007380E01000087
:101C0000F80800F80008F800033C0700073C030050
:101C1000081868808068180820302C03032C3020B6
:101C20000838C800C83808000000203F2000000025
:101C300010080808C838080020382621202018007D
:101C4000000000FE020202000000007F4040400051
:101C5000000C30C000000000000000010638C00089
:101C600000020202FE000000004040407F00000031
:101C70000000040202020400000000000000000056
:101C80000000000000000000808080808080808054
:101C9000000202040000000000000000000000003C
:101CA00000008080808000000019242222223F2032
:101CB00008F8008080000000003F112020110E0075
:101CC0000000008080800000000E11202020110004
:101CD000000000808088F800000E112020103F20B6
:101CE0000000808080800000001F2222222213003A
:101CF000008080F0888888180020203F2020000085
:101D00000000808080808000006B94949493600039
:101D100008F8008080800000203F210000203F2044
:101D200000809898000000000020203F2020000044
:101D3000000000809898000000C08080807F000034
:101D400008F8000080808000203F24022D30200011
:101D5000000808F8000000000020203F20200000BC
:101D60008080808080808000203F20003F20003FD6
:101D70008080008080800000203F210000203F20E4
:101D80000000808080800000001F202020201F0095
:101D9000808000808000000080FFA12020110E00C4
:101DA0000000008080808000000E112020A0FF80B5
:101DB000808080008080800020203F212000010062
:101DC00000008080808080000033242424241900B7
:101DD000008080E0808000000000001F20200000C4
:101DE0008080000000808000001F202020103F2005
:101DF000808080000080808000010E300806010095
:101E000080800080008080800F300C030C300F0039
:101E100000808000808080000020312E0E31200064
:101E2000808080000080808080818E701806010094
:101E300000808080808080000021302C22213000B2
:101E400000000000807C020200000000003F4040D3
:101E500000000000FF00000000000000FF00000084
:101E60000002027C800000000040403F00000000B3
:101E7000000601010202040400000000000000004E
:101E8000010202030405060708090A0B0C0D0E0FD8
:101E9000101000000000000000000102030406070B
:101EA00008090000000001020304303132333435E8
:101EB0003637383941424344454640305800303186
:101EC00032333435363738396162636465664030A1
:101ED000780004000008000000000000000200017B
:101EE00000001000041F0008000000201C0000007B
:101EF00028010008201F00081C00002074070000B3
:101F0000440100080000010203040000000000007A
:101F100001000000100000000000000000127A0024
:04000005080000ED02
:00000001FF
