:020000040800F2
:100000008006002089010008C70B0008FD0A0008CF
:10001000C50B00088F020008A70E000800000000B2
:100020000000000000000000000000003B0E00087F
:100030009102000800000000390E00083D0E000883
:10004000A3010008A3010008A3010008A301000800
:10005000A3010008A3010008A3010008A3010008F0
:10006000A3010008A3010008A3010008A3010008E0
:10007000A3010008A3010008A3010008A3010008D0
:10008000A3010008A3010008A3010008A3010008C0
:10009000A3010008A3010008A3010008A3010008B0
:1000A000A3010008A3010008A3010008A3010008A0
:1000B000A3010008A3010008A3010008A301000890
:1000C000A3010008A3010008A3010008A301000880
:1000D000A3010008A3010008A3010008A301000870
:1000E000A3010008A3010008A301000800F002F822
:1000F00000F03AF80AA090E8000C82448344AAF188
:100100000107DA4501D100F02FF8AFF2090EBAE885
:100110000F0013F0010F18BFFB1A43F0010318473B
:10012000A8140000C8140000103A24BF78C878C191
:10013000FAD8520724BF30C830C144BF04680C60ED
:10014000704700000023002400250026103A28BF35
:1001500078C1FBD8520728BF30C148BF0B60704739
:100160001FB51FBD10B510BD00F058F81146FFF7C0
:10017000F7FF00F0A9FE00F076F803B4FFF7F2FFF6
:1001800003BC00F07DF8000009488047094800479B
:10019000FEE7FEE7FEE7FEE7FEE7FEE7FEE7FEE737
:1001A000FEE7FEE704480549054A064B7047000094
:1001B000A50E0008ED000008800000208006002049
:1001C00080020020800200204FF0000200B513469C
:1001D00094469646203922BFA0E80C50A0E80C5067
:1001E000B1F12001BFF4F7AF090728BFA0E80C5018
:1001F00048BF0CC05DF804EB890028BF40F8042B11
:1002000008BF704748BF20F8022B11F0804F18BF7D
:1002100000F8012B7047704770477047754600F033
:100220002BF8AE4605006946534620F00700854688
:1002300018B020B5FFF7B6FFBDE820404FF000062C
:100240004FF000074FF000084FF0000B21F00701BE
:10025000AC46ACE8C009ACE8C009ACE8C009ACE801
:10026000C0098D46704710B50446AFF300802046A4
:10027000BDE81040FFF781BF004870471C00002018
:1002800001491820ABBEFEE7260002007047FEE7DA
:10029000704772B6FEE7000070B5044600F008F93A
:1002A0000546601C02D004480078044400F000F9C0
:1002B000401BA042FAD370BD000000202DE9F84F8A
:1002C000DFF8B8910024A9F1040B23460F2709F1A8
:1002D000040AABF1040EC9E00125A5402A40AA4258
:1002E0007DD1674ED1F804C0ACEB0608B44532D0DE
:1002F00014DCBCF1030F3AD009DCBCF1000F2AD0AA
:10030000BCF1010F1CD0BCF1020F31D11DE0BCF1DA
:10031000110F17D0BCF1120F2AD119E0B8F5881FC0
:1003200019D006DCB8F5803F15D0B8F5801F1FD175
:1003300011E0B8F5001F0ED0B8F5041F18D10AE07F
:10034000CB6815E0CB681B1D12E0CB6808330FE0CB
:10035000CB680C330CE08B682BB1012B4FF00803FA
:1003600003D0456104E0042302E0056100E00023BE
:10037000FF2A01D8064601E000F104064FEA840591
:1003800001D9A5F12005D6F8008007FA05FC28EA76
:100390000C0803FA05F548EA0508C6F800804D6820
:1003A000ED0062D5374DAE6946F00106AE61AD692C
:1003B00024F0030605F001050095334D06EB050C0E
:1003C000DCF80850A607360F07FA06F825EA0805F4
:1003D000DFF8B880404503D14FF0000817E044E053
:1003E000DFF8AC80404502D14FF001080FE0DFF8A4
:1003F000A480404502D14FF0020808E0DFF8988061
:10040000404502D14FF0030801E04FF0040808FA1C
:1004100006F848EA0508CCF808804D68D9F800606D
:10042000ED024D4601D5164300E096432E604D681F
:10043000DAF80060AD02554601D5164300E0964358
:100440002E604D68DBF80060AD035D4601D51643B4
:1004500000E096432E604D68DEF80060ED037546BF
:1004600001D5164300E096432E60641C0D682A46B1
:10047000E5407FF431AFBDE8F88F0000080401408B
:10048000000011100010024000000140000801406F
:10049000000C014000100140001401408068084039
:1004A00000D0012070470AB1016170470904FBE7E1
:1004B00001488068704700000000002070B504000B
:1004C00013D021684CF6CC400860216845F25550A5
:1004D0000860D4E9000141602168A0688860FFF7E6
:1004E000E7FF054641F23C360DE0012070BD00BF3C
:1004F000FFF7DEFF401BB04205D92068C0688007C7
:1005000001D0032070BD2068C0688007F0D1216849
:100510004AF6AA200860002070BD00684AF6AA21A9
:100520000160002070470000024881680278114491
:100530008160704700000020074810B5016841F055
:1005400010010160032000F067F80F2000F006F8AA
:1005500000F024F8002010BD0020024070B50D4DC1
:1005600004464FF47A712878B1FBF0F00A49096823
:10057000B1FBF0F000F0AEFA48B9102C07D200221F
:100580002146501E00F028F800206C6070BD01204C
:1005900070BD0000000000200C0000200C4808B5D1
:1005A000816941F001018161816901F001010091DE
:1005B000C16941F08051C161C06900F08050009074
:1005C0000448416821F0E06141F00071416008BDDC
:1005D0000010024000000140F0B40E4B1B680C46B6
:1005E000C3F30223C3F10705042D00D90425191D07
:1005F000072901D2002300E0DB1E012606FA05F1DF
:10060000491E214099409E40761E16403143F0BC61
:1006100000F04ABC0CED00E0064900F00702086853
:100620004FF6FF03184040EA0220034A10430860D7
:10063000704700000CED00E00000FA052DE9F047DE
:100640000F46050061D0434E306800F00700B84205
:1006500009D2306820F0070038433060306800F07D
:100660000700B84251D128683B4C810712D540079A
:1006700003D5606840F4E06060602878000703D527
:10068000606840F4605060606068A96820F0F00025
:10069000084360602878C00728D06868012810D017
:1006A0002168022810D0890700292EDA616821F01C
:1006B000030101436160FFF7FBFE804641F2883988
:1006C0000DE021688903EFE78901EDE7FFF7F0FE10
:1006D000A0EB0801494502D90320BDE8F087606816
:1006E000696800F00C00B0EB810FEFD1306800F0CA
:1006F0000700B8420BD9306820F00700384330605B
:10070000306800F00700B84201D00120E5E7287802
:10071000400705D56068E96820F4E0600843606040
:100720002878000706D56068296920F4605040EAFF
:10073000C100606000F018F86168084AC1F3031155
:10074000515CC8400649086006480068FFF706FF8C
:100750000020C2E70020024000100240B615000849
:100760000C000020040000200E4A51680E4801F0E1
:100770000C03042B11D0082B0FD10C48C1F3834379
:10078000C903C05C0AD55168084AC1F34041921EB2
:10079000515C054A5043B0FBF1F0704704494843AF
:1007A000704700000010024000127A00A6150008F1
:1007B00000093D002DE9F84F040070D02078C04DAD
:1007C000C00749D06868C0F38100012807D0686875
:1007D000C0F38100022809D16868C00306D52868E3
:1007E000800339D560680028E7D035E06068B0F54F
:1007F000803F0BD010B1B0F5A02F11D0286820F4A5
:1008000080302860286820F4802002E0286840F4C6
:1008100080302860606890B1FFF74AFE06460AE023
:10082000286840F480202860F0E700BFFFF740FE12
:10083000801B642873D828688003F7D50CE0FFF785
:1008400037FE064605E000BFFFF732FE801B642836
:10085000F0D828688003F7D420789A4E80074FF0AC
:1008600001094FF0000839D5686810F00C0F07D067
:100870006868C0F38100022809D16868C00306D403
:100880002868800714D52069012808D110E0206964
:10089000B0B1C6F80090FFF70BFE074605E00AE18D
:1008A000FFF706FEC01B0228C4D828688007F7D5CA
:1008B0002868616920F0F80040EAC10028600DE076
:1008C000C6F80080FFF7F4FD074604E0FFF7F0FDEF
:1008D000C01B022823D828688007F7D42078000797
:1008E0002CD57948A169D9B1C0F80090FFF7E0FD97
:1008F000074604E0FFF7DCFDC01B02280FD8686A3A
:100900008007F7D571484FF4FA510068B0FBF1F059
:10091000009000BF0098411E0091FAD20EE080E0E6
:10092000C0F80080FFF7C4FD074604E0FFF7C0FDF4
:10093000C01B022875D8686A8007F7D42078400762
:1009400060D5E8690027C00008D4E86940F080500D
:10095000E861E869012700F0805000905C48016878
:10096000C90513D40168834641F480710160FFF723
:100970009FFD824606E000BFFFF79AFDA0EB0A004C
:1009800064284ED8DBF80000C005F5D5E0680128E2
:100990000AD008B1052813D0286A20F00100286287
:1009A000286A20F0040002E0286A40F00100286272
:1009B000E06841F2883B98B1FFF77AFD82460BE090
:1009C000286A40F004002862EEE700BFFFF770FDE0
:1009D000A0EB0A0159455AD8286A8007F6D50CE0E1
:1009E000FFF766FD824605E0FFF762FDA0EB0A0116
:1009F00059454CD8286A8007F6D41FB1E86920F021
:100A00008050E861E06988B36968C1F38101022917
:100A100044D00228C6F8608004D0FFF749FD0446A0
:100A200038E034E0FFF744FD074604E0FFF740FDFF
:100A3000C01B02282BD828688001F7D4206AB0F5A3
:100A4000803F05D16868A16820F4003008436860E1
:100A5000D4E908010843696821F474110843686007
:100A6000C6F86090FFF724FD044606E025E000BFCD
:100A7000FFF71EFD001B022809D828688001F7D562
:100A80001BE000BFFFF714FD001B022802D9032062
:100A9000BDE8F88F28688001F4D40EE00128F7D073
:100AA0006868226A00F48031914204D1616A00F4DE
:100AB0007010884201D00120EAE70020E8E700003A
:100AC0000010024000004242800442420C0000201C
:100AD0000070004010B5401EB0F1807F01D30120AE
:100AE00010BD4FF0E02460610F21601700F0DCF9C9
:100AF0000020A06107202061002010BDFEE700005B
:100B000070B586B0002421480094019402940394A7
:100B1000816941F010018161816901F01001049146
:100B2000816941F020018161816901F02001049116
:100B3000816941F004018161816901F0040104913E
:100B4000816941F0080181618069114E00F008005F
:100B50004FF440750490002229463046FFF7A3FC6D
:100B6000B014CDE900040120029069460948FFF75E
:100B7000A5FB11200095CDE90104022003906946F0
:100B80003046FFF79BFB06B070BD0000001002402E
:100B9000000C014000080140094810B507490160F8
:100BA0000221416040F6C3118160FFF787FC0028F5
:100BB00003D0BDE81040FFF76CBB10BD0030004013
:100BC00010000020FEE7FEE770B50024002120465B
:100BD00000F0A6F80025002000F01DF96D1CEDB214
:100BE000802DF8D3641CE4B2082CEFD370BD10B58F
:100BF000FFF786FF012000F0EDF8BDE8104001206E
:100C000000F0F0B870B500240546802626FA04F0FE
:100C1000284000D0012000F0E5F8012000F0DAF8CB
:100C2000002000F0D7F8641CE4B2082CEED30120B9
:100C300000F0D0F8BDE87040002000F0CBB810B54F
:100C4000012000F0CFF8012000F0C4F8002000F0EF
:100C5000C9F8BDE81040002000F0BCB810B5002075
:100C600000F0C0F8012000F0B5F8BDE81040012008
:100C700000F0B8B810B500204FF47A720021491C7A
:100C80009142FCD3401C9042F8D3FFF7B0FFAE2056
:100C900000F0B0F8D52000F0ADF8802000F0AAF800
:100CA000A82000F0A7F83F2000F0A4F8D32000F01F
:100CB000A1F8002000F09EF8402000F09BF8A12051
:100CC00000F098F8C82000F095F8DA2000F092F8CB
:100CD000122000F08FF8812000F08CF8CF2000F077
:100CE00089F8D92000F086F8F12000F083F8DB20A5
:100CF00000F080F8302000F07DF8A42000F07AF8B1
:100D0000A62000F077F88D2000F074F8142000F091
:100D100071F8AF2000F06EF8BDE81040FFF754BF47
:100D200010B50C4640F0B00000F064F8102040EA26
:100D3000141000F05FF804F00F00BDE8104000F060
:100D400059B800002DE9F0410746CE004000083EAA
:100D5000801E15464FF0FF38F1B2C0B2FFF7E0FF3A
:100D60001148002400EB05152819A0F5805090F8D3
:100D7000000E00F050F8641CE4B2082CF4D308EB29
:100D80004700F1B2C0B2FFF7CBFF00242819A0F54D
:100D9000805090F8080E00F03EF8641CE4B2082C75
:100DA000F4D3BDE8F0810000B40F00082DE9F04154
:100DB00015460E460746002406E03019C1B23846F3
:100DC000FFF7C0FF641CE4B22A5D002AF5D1BDE83C
:100DD000F081000002464FF400710148FFF763BB49
:100DE000000C014002464FF480710148FFF75BBBE5
:100DF000000C014010B50446FFF721FF7820FFF7F3
:100E000001FF0020FFF7FEFE2046FFF7FBFEBDE8D6
:100E10001040FFF723BF10B50446FFF710FF7820FE
:100E2000FFF7F0FE4020FFF7EDFE2046FFF7EAFE59
:100E3000BDE81040FFF712BF70477047FFF774BB63
:100E400030B58FB028216846FFF7BEF914210AA8F3
:100E5000FFF7BAF90920012100904FF480300024F7
:100E600004910691CDE901040225CDE907504FF424
:100E7000E01009906846FFF79DFC08B172B6FEE7E6
:100E80000F20CDE90A054FF48060CDE90C40022126
:100E90000AA80E94FFF7D2FB002801D072B6FEE735
:100EA0000FB030BD7047FEE70907090E002804DBCC
:100EB00000F1E02080F80014704700F00F0000F10E
:100EC000E02080F8141D7047FFF736FBFFF7B8FFEE
:100ED000FFF716FEFFF760FEFFF7CCFE012126A20A
:100EE0000846FFF763FF2748406A4FF4FA74800012
:100EF00013D525A201210220FFF758FF2046FFF756
:100F0000CBF923A201210220FFF750FF6420FFF755
:100F1000C3F92149012008600FE01CA20121022031
:100F2000FFF744FF2046FFF7B7F91AA2012102207C
:100F3000FFF73CFF6420FFF7AFF9184D4FF48054E2
:100F40004FF4167621462846FFF7A8FA0028F9D074
:100F50001348FFF7E2FA13A201210420FFF726FF4E
:100F6000C820FFF799F911A201210420FFF71EFF05
:100F70003046FFF791F9E5E7495744472054455873
:100F80005400000000100240495744475253540097
:100F90002020202020202000E004424200080140C0
:100FA000100000204645454400000000202020207D
:100FB0000000000000000000000000000000000031
:100FC00000000000000000F80000000000000033F6
:100FD0003000000000100C06100C0600000000009D
:100FE0000000000040C07840C0784000043F040486
:100FF0003F040400007088FC08300000001820FF47
:10100000211E0000F008F000E018000000211C0381
:101010001E211E0000F00888700000001E212324FD
:101020001927211010160E0000000000000000001B
:1010300000000000000000E01804020000000007AB
:101040001820400000020418E000000000402018B2
:1010500007000000404080F0804040000202010F85
:1010600001020200000000F0000000000101011F69
:1010700001010100000000000000000080B07000CD
:10108000000000000000000000000000000101015D
:1010900001010101000000000000000000303000EC
:1010A00000000000000000008060180400601806C6
:1010B0000100000000E010080810E000000F102000
:1010C00020100F00001010F8000000000020203F4A
:1010D00020200000007008080888700000302824D4
:1010E0002221300000300888884830000018202075
:1010F00020110E000000C02010F80000000704249A
:10110000243F240000F808888808080000192120DE
:1011100020110E0000E0108888180000000F112038
:1011200020110E0000380808C83808000000003FF1
:10113000000000000070880808887000001C222150
:1011400021221C0000E010080810E00000003122FD
:1011500022110F00000000C0C0000000000000309D
:1011600030000000000000800000000000008060EF
:101170000000000000008040201008000001020470
:101180000810200040404040404040000404040457
:101190000404040000081020408000000020100813
:1011A00004020100007048080808F0000000003048
:1011B00036010000C030C828E810E00007182724D6
:1011C00023140B000000C038E0000000203C230284
:1011D0000227382008F8888888700000203F2020E7
:1011E00020110E00C0300808080838000718202019
:1011F0002010080008F808080810E000203F202010
:1012000020100F0008F88888E8081000203F2020F0
:101210002320180008F88888E8081000203F2000E4
:1012200003000000C030080808380000071820201C
:10123000221E020008F808000008F808203F2101DB
:1012400001213F20000808F8080800000020203F86
:101250002020000000000808F8080800C0808080F6
:101260007F00000008F888C028180800203F2001EF
:101270002638200008F8080000000000203F202049
:101280002020300008F8F800F8F80800203F003F60
:10129000003F200008F830C00008F808203F200078
:1012A00007183F00E01008080810E0000F10202089
:1012B00020100F0008F808080808F000203F21015E
:1012C00001010000E01008080810E0000F182424B5
:1012D00038504F0008F8888888887000203F200028
:1012E000030C3020007088080808380000382021DE
:1012F00021221C00180808F8080818000000203FE8
:101300002000000008F808000008F808001F20204E
:1013100020201F000878880000C83808000007381F
:101320000E010000F80800F80008F800033C070070
:10133000073C0300081868808068180820302C03D8
:10134000032C30200838C800C83808000000203FAF
:101350002000000010080808C8380800203826219E
:1013600020201800000000FE020202000000007FA2
:1013700040404000000C30C00000000000000001B0
:101380000638C00000020202FE000000004040409B
:101390007F000000000004020202040000000000C0
:1013A000000000000000000000000000808080803D
:1013B0008080808000020204000000000000000025
:1013C00000000000000080808080000000192422BE
:1013D00022223F2008F8008080000000003F1120FA
:1013E00020110E000000008080800000000E1120FF
:1013F00020201100000000808088F800000E1120DD
:1014000020103F200000808080800000001F2222EA
:1014100022221300008080F0888888180020203F56
:10142000202000000000808080808000006B949469
:101430009493600008F8008080800000203F210025
:1014400000203F2000809898000000000020203FEE
:1014500020200000000000809898000000C08080DC
:10146000807F000008F8000080808000203F240278
:101470002D302000000808F8000000000020203F68
:10148000202000008080808080808000203F20001D
:101490003F20003F8080008080800000203F2100AE
:1014A00000203F200000808080800000001F20205E
:1014B00020201F00808000808000000080FFA1208D
:1014C00020110E000000008080808000000E11209E
:1014D00020A0FF80808080008080800020203F212D
:1014E00020000100000080808080800000332424E0
:1014F00024241900008080E0808000000000001F8C
:10150000202000008080000000808000001F20203C
:1015100020103F20808080000080808000010E30FD
:101520000806010080800080008080800F300C035E
:101530000C300F0000808000808080000020312E61
:101540000E312000808080000080808080818E703D
:101550001806010000808080808080000021302CEF
:101560002221300000000000807C02020000000008
:10157000003F404000000000FF00000000000000AD
:10158000FF0000000002027C800000000040403F9D
:101590000000000000060101020204040000000037
:1015A00000000000010202030405060708090A0BF7
:1015B0000C0D0E0F101000000000000000000102D2
:1015C0000304060708090000E815000800000020D1
:1015D0001000000028010008F81500081000002085
:1015E0007006000044010008010000001000000027
:0815F0000000000000127A0067
:04000005080000ED02
:00000001FF
