:020000040800F2
:1000000048070020890100080314000809130008AC
:10001000011400088F020008A91A0008000000005F
:10002000000000000000000000000000771600083B
:10003000D3020008000000007516000879160008B9
:10004000A3010008A3010008A3010008A301000800
:10005000A3010008A3010008A3010008A3010008F0
:10006000A3010008A3010008A3010008A3010008E0
:10007000A3010008A3010008910200089D020008E6
:10008000A3010008A3010008A3010008A3010008C0
:10009000A3010008A3010008A3010008A3010008B0
:1000A000A3010008A3010008A3010008A3010008A0
:1000B000A3010008A3010008A3010008A301000890
:1000C000A3010008A3010008A3010008A301000880
:1000D000A30100089D1A0008A3010008A30100085D
:1000E000A3010008A3010008A301000800F002F822
:1000F00000F03AF80AA090E8000C82448344AAF188
:100100000107DA4501D100F02FF8AFF2090EBAE885
:100110000F0013F0010F18BFFB1A43F0010318473B
:100120006C2000008C200000103A24BF78C878C1F1
:10013000FAD8520724BF30C830C144BF04680C60ED
:10014000704700000023002400250026103A28BF35
:1001500078C1FBD8520728BF30C148BF0B60704739
:100160001FB51FBD10B510BD00F058F81146FFF7C0
:10017000F7FF01F0ABFC00F076F803B4FFF7F2FFF5
:1001800003BC00F07DF8000009488047094800479B
:10019000FEE7FEE7FEE7FEE7FEE7FEE7FEE7FEE737
:1001A000FEE7FEE704480549054A064B7047000094
:1001B000DB160008ED000008480100204807002079
:1001C00048030020480300204FF0000200B513460A
:1001D00094469646203922BFA0E80C50A0E80C5067
:1001E000B1F12001BFF4F7AF090728BFA0E80C5018
:1001F00048BF0CC05DF804EB890028BF40F8042B11
:1002000008BF704748BF20F8022B11F0804F18BF7D
:1002100000F8012B7047704770477047754600F033
:100220002BF8AE4605006946534620F00700854688
:1002300018B020B5FFF7B6FFBDE820404FF000062C
:100240004FF000074FF000084FF0000B21F00701BE
:10025000AC46ACE8C009ACE8C009ACE8C009ACE801
:10026000C0098D46704710B50446AFF300802046A4
:10027000BDE81040FFF781BF00487047E80000204C
:1002800001491820ABBEFEE7260002007047FEE7DA
:10029000014800F091B80000A4000020014800F0DF
:1002A0008BB800006000002030B590F84050012469
:1002B000AC40C56B6C60046863604368102B0368D6
:1002C00003D099600068C26030BD9A600068C16068
:1002D00030BD704772B6FEE710B590F821100022CD
:1002E000022905D00421816380F82020012010BD5F
:1002F00001680B6823F00E030B6001680B6823F0A4
:1003000001030B6090F84030C46B012101FA03F344
:10031000636080F8211080F82020104610BD000096
:1003200010B590F821100024022903D00421816324
:1003300001243DE001680A6822F00E020A600168AB
:100340000A6822F001020A601A4A0168914201D14A
:10035000012121E0174A1432914201D110211BE002
:10036000144A2832914201D1891515E0114A3C32D4
:10037000914201D189140FE00E4A5032914202D1CC
:100380004FF4803108E00B4A6432914202D14FF4BD
:10039000801101E04FF08071064A083A5160012156
:1003A00080F82110002180F82010416B01B18847AE
:1003B000204610BD080002402DE9F05FC16B0C68BB
:1003C00001680B68D0F840C0042202FA0CF2494DD3
:1003D000DFF824A1494E4A4FDFF828B1DFF828E1C1
:1003E00022422CD05A072AD50A68920603D40A68FA
:1003F00022F004020A600168A94201D1042219E036
:10040000514501D1402215E0B14202D14FF4806242
:1004100010E0B94202D14FF480420BE0594502D1BD
:100420004FF4802206E0714502D14FF4800201E0D2
:100430004FF080622F4908394A60C16A3BE04FF0B3
:10044000020808FA0CF818EA040F4FF000094FF000
:10045000010235D05FEA837832D50B689B0605D45C
:100460000B6823F00A030B6080F821200168A94281
:1004700001D1022219E0514501D1202215E0B142FB
:1004800002D14FF4007210E0B94202D14FF4005291
:100490000BE0594502D14FF4003206E0714502D11C
:1004A0004FF4001201E04FF00072124908394A601F
:1004B00080F82090816A00291AD0BDE8F05F0847D3
:1004C000082505FA0CF5254212D01B0710D50B683C
:1004D00023F00E030B6090F84010C36B02FA01F199
:1004E0005960826380F8212080F82090016BE2E758
:1004F000BDE8F09F080002401C00024030000240AE
:1005000044000240580002406C00024030B528B35D
:1005100008C8134914221944B1FBF2F18900C163E0
:1005200010498163022141771A6843F6F0718A43CA
:10053000D0E900142143D0E902452C43214304694A
:1005400021434469214384692143114319600021F7
:100550004163012242770177084630BD012030BD5A
:10056000F8FFFDBF0000024070B5044690F820007F
:10057000002501280CD0012084F8200094F8216087
:100580000020012E06D084F820000225284670BDE8
:10059000022070BD022684F82160A06320680668EE
:1005A00026F0010606602046FFF77EFEE06A00287E
:1005B0002068016802D041F00E0106E021F004013C
:1005C00001602068016841F00A010160206801684B
:1005D00041F001010160D9E770B5044600F004F96B
:1005E0000546601C02D004480078044400F0FCF882
:1005F000401BA042FAD370BD080000202DE9F84F3F
:10060000DFF8B8910024A9F1040B23460F2709F164
:10061000040AABF1040EC9E00125A5402A40AA4214
:100620007DD1674ED1F804C0ACEB0608B44532D09A
:1006300014DCBCF1030F3AD009DCBCF1000F2AD066
:10064000BCF1010F1CD0BCF1020F31D11DE0BCF197
:10065000110F17D0BCF1120F2AD119E0B8F5881F7D
:1006600019D006DCB8F5803F15D0B8F5801F1FD132
:1006700011E0B8F5001F0ED0B8F5041F18D10AE03C
:10068000CB6815E0CB681B1D12E0CB6808330FE088
:10069000CB680C330CE08B682BB1012B4FF00803B7
:1006A00003D0456104E0042302E0056100E000237B
:1006B000FF2A01D8064601E000F104064FEA84054E
:1006C00001D9A5F12005D6F8008007FA05FC28EA33
:1006D0000C0803FA05F548EA0508C6F800804D68DD
:1006E000ED0062D5374DAE6946F00106AE61AD69E9
:1006F00024F0030605F001050095334D06EB050CCB
:10070000DCF80850A607360F07FA06F825EA0805B0
:10071000DFF8B880404503D14FF0000817E044E00F
:10072000DFF8AC80404502D14FF001080FE0DFF860
:10073000A480404502D14FF0020808E0DFF898801D
:10074000404502D14FF0030801E04FF0040808FAD9
:1007500006F848EA0508CCF808804D68D9F800602A
:10076000ED024D4601D5164300E096432E604D68DC
:10077000DAF80060AD02554601D5164300E0964315
:100780002E604D68DBF80060AD035D4601D5164371
:1007900000E096432E604D68DEF80060ED0375467C
:1007A00001D5164300E096432E60641C0D682A466E
:1007B000E5407FF431AFBDE8F88F00000804014048
:1007C000000011100010024000000140000801402C
:1007D000000C014000100140001401400AB1016109
:1007E00070470904FBE7000001488068704700007B
:1007F0000800002002488168027811448160704737
:1008000008000020074810B5016841F010010160A0
:10081000032000F075F80F2000F006F800F024F82F
:10082000002010BD0020024070B50D4D04464FF46D
:100830007A712878B1FBF0F00A490968B1FBF0F051
:1008400000F0F3FA48B9102C07D200222146501EBE
:1008500000F036F800206C6070BD012070BD000013
:1008600008000020140000200C4808B5816941F000
:1008700001018161816901F001010091C16941F0CB
:100880008051C161C06900F0805000900448416807
:1008900021F0E06141F00071416008BD00100240AC
:1008A00000000140002809DB00F01F0201219140F7
:1008B0004009800000F1E020C0F8001170470000FE
:1008C000F0B40E4B1B680C46C3F30223C3F10705BB
:1008D000042D00D90425191D072901D2002300E0A9
:1008E000DB1E012606FA05F1491E214099409E4073
:1008F000761E16403143F0BC01F0D7B80CED00E095
:10090000064900F0070208684FF6FF03184040EA66
:100910000220034A10430860704700000CED00E01D
:100920000000FA050648026822F00402026001296C
:1009300003D040BF20BF20BF704730BF70470000CA
:1009400010ED00E02DE9F0470F46050061D0434E61
:10095000306800F00700B84209D2306820F0070084
:1009600038433060306800F00700B84251D1286841
:100970003B4C810712D5400703D5606840F4E06026
:1009800060602878000703D5606840F460506060BC
:100990006068A96820F0F000084360602878C0070C
:1009A00028D06868012810D02168022810D0890753
:1009B00000292EDA616821F0030101436160FFF72D
:1009C00013FF804641F288390DE021688903EFE783
:1009D0008901EDE7FFF708FFA0EB0801494502D9BF
:1009E0000320BDE8F0876068696800F00C00B0EB98
:1009F000810FEFD1306800F00700B8420BD93068A2
:100A000020F0070038433060306800F00700B8423B
:100A100001D00120E5E72878400705D56068E9683E
:100A200020F4E060084360602878000706D560681D
:100A3000296920F4605040EAC100606000F038F895
:100A40006168084AC1F30311515CC8400649086057
:100A500006480068FFF7E8FE0020C2E700200240D9
:100A60000010024072210008140000200C00002039
:100A70000448054900684968044AC1F30221515CF1
:100A8000C840704714000020001002408221000876
:100A90000448054900684968044AC1F3C221515C11
:100AA000C840704714000020001002408221000856
:100AB0000E4A51680E4801F00C03042B11D0082B8C
:100AC0000FD10C48C1F38343C903C05C0AD55168F8
:100AD000084AC1F34041921E515C054A5043B0FBA5
:100AE000F1F070470449484370470000001002408D
:100AF00000127A006221000800093D002DE9F84F3C
:100B0000040070D02078C04DC00749D06868C0F399
:100B10008100012807D06868C0F38100022809D14C
:100B20006868C00306D52868800339D56068002846
:100B3000E7D035E06068B0F5803F0BD010B1B0F57C
:100B4000A02F11D0286820F480302860286820F475
:100B5000802002E0286840F480302860606890B10E
:100B6000FFF742FE06460AE0286840F4802028602D
:100B7000F0E700BFFFF738FE801B642873D82868B1
:100B80008003F7D50CE0FFF72FFE064605E000BF17
:100B9000FFF72AFE801B6428F0D828688003F7D46A
:100BA00020789A4E80074FF001094FF0000839D5A0
:100BB000686810F00C0F07D06868C0F38100022845
:100BC00009D16868C00306D42868800714D5206955
:100BD000012808D110E02069B0B1C6F80090FFF7F5
:100BE00003FE074605E00AE1FFF7FEFDC01B0228F1
:100BF000C4D828688007F7D52868616920F0F80014
:100C000040EAC10028600DE0C6F80080FFF7ECFD67
:100C1000074604E0FFF7E8FDC01B022823D8286838
:100C20008007F7D4207800072CD57948A169D9B17D
:100C3000C0F80090FFF7D8FD074604E0FFF7D4FDA9
:100C4000C01B02280FD8686A8007F7D571484FF497
:100C5000FA510068B0FBF1F0009000BF0098411E0F
:100C60000091FAD20EE080E0C0F80080FFF7BCFDF2
:100C7000074604E0FFF7B8FDC01B022875D8686A74
:100C80008007F7D42078400760D5E8690027C000C6
:100C900008D4E86940F08050E861E869012700F075
:100CA000805000905C480168C90513D401688346F0
:100CB00041F480710160FFF797FD824606E000BFB6
:100CC000FFF792FDA0EB0A0064284ED8DBF8000085
:100CD000C005F5D5E06801280AD008B1052813D071
:100CE000286A20F001002862286A20F0040002E04F
:100CF000286A40F001002862E06841F2883B98B120
:100D0000FFF772FD82460BE0286A40F0040028627B
:100D1000EEE700BFFFF768FDA0EB0A0159455AD87E
:100D2000286A8007F6D50CE0FFF75EFD824605E0F5
:100D3000FFF75AFDA0EB0A0159454CD8286A8007F5
:100D4000F6D41FB1E86920F08050E861E06988B30B
:100D50006968C1F38101022944D00228C6F8608085
:100D600004D0FFF741FD044638E034E0FFF73CFDD6
:100D7000074604E0FFF738FDC01B02282BD828687F
:100D80008001F7D4206AB0F5803F05D16868A1687A
:100D900020F4003008436860D4E90801084369681A
:100DA00021F4741108436860C6F86090FFF71CFDD9
:100DB000044606E025E000BFFFF716FD001B0228F1
:100DC00009D828688001F7D51BE000BFFFF70CFDAC
:100DD000001B022802D90320BDE8F88F2868800193
:100DE000F4D40EE00128F7D06868226A00F480315C
:100DF000914204D1616A00F47010884201D0012050
:100E0000EAE70020E8E7000000100240000042424C
:100E10008004424214000020007000404FF0E020A7
:100E2000016941F002010161704710B5401EB0F147
:100E3000807F01D3012010BD4FF0E02460610F21BD
:100E4000601700F032FE0020A06107202061002022
:100E500010BD4FF0E020016921F0020101617047EF
:100E600038B5044690F84200202801D0022038BD51
:100E700051B14AB10120206300206063204600F098
:100E8000C5FD216B012901D0012038BD21680A6808
:100E90004968009121680C3151E8002F42F010029E
:100EA00041E80023002BF5D138BD0000084A10B5F9
:100EB00090420BD10A460749054800F0E7F9BDE822
:100EC0001040052203490248FFF7CABF10BD0000C9
:100ED000180000200200002070470000F8B50168EB
:100EE00004460868CA684B6910F00F0F4FF0000500
:100EF00059D003F0010602F49077374365D0C1075B
:100F000005D0D10503D5616C41F001016164410751
:100F100005D5D90703D0616C41F0020161648107F6
:100F200005D5D90703D0616C41F004016164010764
:100F300007D502F02001314303D0616C41F0080174
:100F40006164616C00293AD0800604D5900602D510
:100F5000204600F09DFC20684069616CC0F3801061
:100F6000090700D460B3204600F05DFC20684069AA
:100F7000400621D52068143050E8001F21F04001C0
:100F800040E80012002AF5D1E06BA8B16D49416339
:100F9000E06BFFF7C5F9002811D0E06B416B01B0A1
:100FA000BDE8F040084783060FD593060DD52046CF
:100FB000BDE8F84000F06CBC2046FFF78DFFF8BD9F
:100FC0002046FFF789FF6564F8BD266B2023012EBC
:100FD0007CD1C6067AD5D60678D5086848680090D0
:100FE00048694FF00206400640D5E16B086840684A
:100FF0000004000CE8D0A28D8242E5D9E085886922
:1010000020282DD020680C3050E8001F21F480717A
:1010100040E80012002AF5D12068143050E8001F83
:1010200021F0010140E80012002AF5D120681430B7
:1010300050E8001F21F0400140E80012002AF5D1DD
:1010400084F84230256320680C3050E8001F21F0FE
:10105000100140E80012002AF5D1E06BFFF73CF9DF
:101060006663A08DE18D401A81B22AE0A08DE18DEA
:10107000401A81B2E08D0028A6D00029A4D02268B1
:101080000C3252E8000F20F4907042E80007002F65
:10109000F5D12068143050E8002F22F0010240E81A
:1010A0000027002FF5D184F84230256320680C30EA
:1010B00050E8002F22F0100240E80023002BF5D169
:1010C00066632046FFF7F2FEF8BDFFE705062BD565
:1010D000150629D594F841002128F5D1A068B0F56E
:1010E000805F01D12069B0B1206A411C2162216872
:1010F00000784860E08C401E0004000CE084E3D1DE
:101100002068C16821F08001C1602068C16841F099
:101110004001C160D8E7206A0088C0F30800486039
:10112000206A801C2062E5E74006CDD55006CBD56D
:10113000CA68204622F04002CA6084F8413000F0BC
:10114000E1F8C1E7DD16000870B5040004D094F89A
:101150004100002510B106E0012070BD84F8405028
:10116000204600F023F8242084F841002068C1685C
:1011700021F40051C160204600F0ECFB20680169B9
:1011800021F4904101612068416921F02A01416107
:101190002068C16841F40051C1606564202084F872
:1011A000410084F842006563002070BDF0B585B051
:1011B00000240646009401940294039400682D498B
:1011C000884254D12C48816941F480418161816910
:1011D00001F480410491816941F0040181618069D9
:1011E000264D00F0040004904FF40070009002209F
:1011F00001900320039069462846FFF7FFF9281560
:10120000CDE90004694628460294FFF7F7F91D4D21
:101210001B488027C5E90004C5E902472C616C61C1
:10122000AC612846EC61FFF771F908B1FFF752F89D
:10123000F5636E62134D12484435143801C5102011
:1012400091C5104845F8104944306C61AC61EC61BF
:10125000FFF75CF908B1FFF73DF8B56300221146CE
:1012600025206E62FFF72CFB2520FFF71BFB05B046
:10127000F0BD0000003801400010024000080140AD
:1012800058000240600000207047704770B5044667
:1012900090F84100202801D0022070BD49B342B32C
:1012A0002162A284E28400206064212384F841301A
:1012B000A56B114BAB62A56B104BEB62A56B104B92
:1012C0002B63A36B5863256813462A1DA06BFFF799
:1012D0004BF921686FF0400008602068143050E836
:1012E000001F41F0800140E80012002AF5D10020E3
:1012F00070BD012070BD0000DB1700081D1800083C
:10130000ED16000870477047FEE700000D4808B56D
:10131000416941F0010141614069002200F0010092
:10132000009011460E20FFF7CBFA0E20FFF7BAFA15
:10133000002211460F20FFF7C3FABDE808400F2036
:10134000FFF7B0BA0010024070B586B000241C4808
:101350000094019402940394816941F01001816129
:10136000816901F010010491816941F020018161DE
:10137000816901F020010491816941F004018161DA
:10138000816901F004010491816941F008018161E2
:1013900080690C4E00F008004FF440750490002264
:1013A00029463046FFF71AFA11200095CDE90104CD
:1013B0000220039069463046FFF720F906B070BD61
:1013C00000100240000C01400C4810B50A490160B1
:1013D0004FF4E1314160002181600C22C160C0E91D
:1013E00004128161C161FFF7AFFE002803D0BDE8A0
:1013F0001040FEF76FBF10BD0038014018000020FC
:10140000FEE7FEE770B500240021204600F0A6F8B4
:101410000025002000F01DF96D1CEDB2802DF8D3E1
:10142000641CE4B2082CEFD370BD10B5FFF78CFF3D
:10143000012000F0EDF8BDE81040012000F0F0B808
:1014400070B500240546802626FA04F0284000D016
:10145000012000F0E5F8012000F0DAF8002000F0AB
:10146000D7F8641CE4B2082CEED3012000F0D0F8C9
:10147000BDE87040002000F0CBB810B5012000F0AE
:10148000CFF8012000F0C4F8002000F0C9F8BDE852
:101490001040002000F0BCB810B5002000F0C0F8EB
:1014A000012000F0B5F8BDE81040012000F0B8B808
:1014B00010B500204FF47A720021491C9142FCD3F0
:1014C000401C9042F8D3FFF7B0FFAE2000F0B0F818
:1014D000D52000F0ADF8802000F0AAF8A82000F098
:1014E000A7F83F2000F0A4F8D32000F0A1F80020D6
:1014F00000F09EF8402000F09BF8A12000F098F842
:10150000C82000F095F8DA2000F092F8122000F0E0
:101510008FF8812000F08CF8CF2000F089F8D920D6
:1015200000F086F8F12000F083F8DB2000F080F86E
:10153000302000F07DF8A42000F07AF8A62000F01A
:1015400077F88D2000F074F8142000F071F8AF20C7
:1015500000F06EF8BDE81040FFF754BF10B50C4620
:1015600040F0B00000F064F8102040EA141000F0E1
:101570005FF804F00F00BDE8104000F059B800001B
:101580002DE9F0410746CE004000083E801E15467A
:101590004FF0FF38F1B2C0B2FFF7E0FF114800246E
:1015A00000EB05152819A0F5805090F8000E00F00A
:1015B00050F8641CE4B2082CF4D308EB4700F1B2F5
:1015C000C0B2FFF7CBFF00242819A0F5805090F897
:1015D000080E00F03EF8641CE4B2082CF4D3BDE819
:1015E000F0810000701B00082DE9F04115460E4601
:1015F0000746002406E03019C1B23846FFF7C0FFA5
:10160000641CE4B22A5D002AF5D1BDE8F081000037
:1016100002464FF400710148FFF7E0B8000C0140AA
:1016200002464FF480710148FFF7D8B8000C014022
:1016300010B50446FFF721FF7820FFF701FF0020D7
:10164000FFF7FEFE2046FFF7FBFEBDE81040FFF768
:1016500023BF10B50446FFF710FF7820FFF7F0FE18
:101660004020FFF7EDFE2046FFF7EAFEBDE8104000
:10167000FFF712BF70477047FFF7BCB830B58FB0A7
:1016800028216846FEF7A0FD14210AA8FEF79CFD5C
:1016900001210804CDE900100024029402250491E0
:1016A000CDE907504FF4E01009906846FFF726FA9D
:1016B00008B172B6FEE70F20CDE90A054FF480604D
:1016C000CDE90C4002210AA80E94FFF73BF900284F
:1016D00001D072B6FEE70FB030BD704710B5406A5A
:1016E0000021C185C184FFF7F7FB10BD70B5446AC6
:1016F0002068406994F84110C0F3C01000252129EA
:1017000004D118B1E584204600F0B4F8206840699F
:1017100094F84210C0F38010222904D118B1E58555
:10172000204600F080F8606C40F0100060642046B5
:10173000FFF7D2FB70BD10B50146406A0968096821
:101740004FF0000289062ED4C28501680C3151E8A1
:10175000003F23F4807341E80034002CF5D1016888
:10176000143151E8003F23F0010341E80034002C1C
:10177000F5D10168143151E8003F23F0400341E8FE
:101780000034002CF5D1202180F84210016B012992
:1017900009D101680C3151E8003F23F0100341E802
:1017A0000034002CF5D14263016B012902D0FFF710
:1017B0006BFD10BD818DFFF779FB10BD10B5406A40
:1017C00001214163016B012902D0FFF75EFD10BDCD
:1017D000818D4908FFF76AFB10BD10B50146406ACC
:1017E00009680968890616D40021C184016814318A
:1017F00051E8002F22F0800241E80023002BF5D1B0
:1018000001680C3151E8002F42F0400241E800230A
:10181000002BF5D110BDFFF775FD10BD10B5406A66
:10182000FFF771FD10BD01680C3151E8002F22F463
:10183000907241E80023002BF5D10168143151E882
:10184000002F22F0010241E80023002BF5D1016BAB
:10185000012909D101680C3151E8002F22F0100252
:1018600041E80023002BF5D1202180F8421000210F
:101870000163704701680C3151E8002F22F0C0026B
:1018800041E80023002BF5D1202180F8411070475A
:1018900008B590F84210222901D0022008BD8268C4
:1018A0004FF480539A4201D1016921B1816A9A4271
:1018B0001BD04AB10AE00268816A5268C2F308028A
:1018C0000A80816A891C08E0026972B10268526864
:1018D00002F07F020A70816A491C8162C18D491E33
:1018E0000904090CC18503D01BE002685268F1E7C6
:1018F0000168CA6822F02002CA600168CA6822F43E
:101900008072CA6001684A6922F001024A6120219E
:1019100080F8421000214163026B012A03D0FFF7D7
:10192000B3FC002008BD016301680C3151E8002FB1
:1019300022F0100241E80023002BF5D101680A686B
:10194000D20602D50A6849680091818DFFF7AEFA88
:10195000E7E7000070B5044600680169E26821F419
:101960004051114301612169A0680843616908433E
:101970002168CA6841F20C639A430243CA60206836
:101980004169A26921F44071114341611E492068F7
:10199000884202D1FFF77CF801E0FFF769F800EB1D
:1019A000C00101EB0012606864218000B2FBF0F31B
:1019B000B3FBF1F36FF018067343B2FBF0F5B2FB23
:1019C000F0F605EB8305322303EB0515B5FBF1F5C6
:1019D000B6FBF1F605F0F00505EB0615B2FBF0F6E7
:1019E000B2FBF0F0B0FBF1F06FF01802504306EBE1
:1019F000800003EB0010B0FBF1F0216800F00F0055
:101A00002844886070BD00000038014038B581620C
:101A100004468285002013466064222284F8422016
:101A2000E56B1B4AAA62E56B1A4AEA62E56B1A4A41
:101A30002A63E26B50630A462168E06B091DFEF7DA
:101A400093FD2068016840680090206948B12068D3
:101A50000C3050E8001F41F4807140E80012002A69
:101A6000F5D12068143050E8001F41F0010140E832
:101A70000012002AF5D12068143050E8001F41F010
:101A8000400140E80012002AF5D1002038BD0000D6
:101A900037170008BD170008ED1600080148FFF7CA
:101AA0001DBA000018000020FEE70907090E0028F3
:101AB00004DB00F1E02080F80014704700F00F0014
:101AC00000F1E02080F8141D70470000FEF79AFE38
:101AD000FFF7D4FDFFF738FCFFF718FCFFF774FCA5
:101AE00005221B491B48FFF7BBF9FFF7E1FC012169
:101AF00019A20846FFF778FD154D0026AC1E4FF4DD
:101B0000FA77268020882A5C0930C1B20120FFF7CD
:101B100037FD2088401C80B220800528F2D310A217
:101B200001210220FFF760FD3846FEF755FD0EA2A9
:101B300001210220FFF758FD3846FEF74DFDFFF763
:101B400088F901210020FEF7EDFEFFF767F9D8E7DD
:101B500002000020180000205278446174613A00AD
:101B600052756E6E696E67002020202020202000B4
:101B70000000000000000000000000000000000065
:101B8000000000F8000000000000003330000000FA
:101B900000100C06100C0600000000000000000001
:101BA00040C07840C0784000043F04043F04040073
:101BB000007088FC08300000001820FF211E000083
:101BC000F008F000E018000000211C031E211E0098
:101BD00000F00888700000001E212324192721101E
:101BE00010160E00000000000000000000000000C1
:101BF000000000E018040200000000071820400068
:101C000000020418E0000000004020180700000057
:101C1000404080F0804040000202010F01020200BB
:101C2000000000F0000000000101011F010101009F
:101C3000000000000000000080B070000000000004
:101C4000000000000000000000010101010101018D
:101C50000000000000000000003030000000000024
:101C600000000000806018040060180601000000F9
:101C700000E010080810E000000F102020100F00F6
:101C8000001010F8000000000020203F202000007D
:101C900000700808088870000030282422213000D5
:101CA00000300888884830000018202020110E00DD
:101CB0000000C02010F8000000070424243F240086
:101CC00000F80888880808000019212020110E005B
:101CD00000E0108888180000000F112020110E006D
:101CE00000380808C83808000000003F0000000065
:101CF0000070880808887000001C222121221C0026
:101D000000E010080810E0000000312222110F004E
:101D1000000000C0C00000000000003030000000E3
:101D20000000008000000000000080600000000053
:101D3000000080402010080000010204081020006C
:101D400040404040404040000404040404040400B7
:101D5000000810204080000000201008040201004C
:101D6000007048080808F00000000030360100004C
:101D7000C030C828E810E0000718272423140B00FF
:101D80000000C038E0000000203C23020227382079
:101D900008F8888888700000203F202020110E005D
:101DA000C030080808083800071820202010080054
:101DB00008F808080810E000203F202020100F003D
:101DC00008F88888E8081000203F20202320180009
:101DD00008F88888E8081000203F20000300000071
:101DE000C03008080838000007182020221E020012
:101DF00008F808000008F808203F210101213F20D1
:101E0000000808F8080800000020203F20200000FB
:101E100000000808F8080800C08080807F000000EB
:101E200008F888C028180800203F20012638200024
:101E300008F8080000000000203F2020202030008B
:101E400008F8F800F8F80800203F003F003F2000A5
:101E500008F830C00008F808203F200007183F00AD
:101E6000E01008080810E0000F10202020100F00DC
:101E700008F808080808F000203F210101010000CF
:101E8000E01008080810E0000F18242438504F0014
:101E900008F8888888887000203F2000030C3020D4
:101EA00000708808080838000038202121221C0012
:101EB000180808F8080818000000203F200000005B
:101EC00008F808000008F808001F202020201F0044
:101ED0000878880000C83808000007380E010000A4
:101EE000F80800F80008F800033C0700073C03006E
:101EF000081868808068180820302C03032C3020D4
:101F00000838C800C83808000000203F2000000042
:101F100010080808C838080020382621202018009A
:101F2000000000FE020202000000007F404040006E
:101F3000000C30C000000000000000010638C000A6
:101F400000020202FE000000004040407F0000004E
:101F50000000040202020400000000000000000073
:101F60000000000000000000808080808080808071
:101F70000002020400000000000000000000000059
:101F800000008080808000000019242222223F204F
:101F900008F8008080000000003F112020110E0092
:101FA0000000008080800000000E11202020110021
:101FB000000000808088F800000E112020103F20D3
:101FC0000000808080800000001F22222222130057
:101FD000008080F0888888180020203F20200000A2
:101FE0000000808080808000006B94949493600057
:101FF00008F8008080800000203F210000203F2062
:1020000000809898000000000020203F2020000061
:10201000000000809898000000C08080807F000051
:1020200008F8000080808000203F24022D3020002E
:10203000000808F8000000000020203F20200000D9
:102040008080808080808000203F20003F20003FF3
:102050008080008080800000203F210000203F2001
:102060000000808080800000001F202020201F00B2
:10207000808000808000000080FFA12020110E00E1
:102080000000008080808000000E112020A0FF80D2
:10209000808080008080800020203F21200001007F
:1020A00000008080808080000033242424241900D4
:1020B000008080E0808000000000001F20200000E1
:1020C0008080000000808000001F202020103F2022
:1020D000808080000080808000010E3008060100B2
:1020E00080800080008080800F300C030C300F0057
:1020F00000808000808080000020312E0E31200082
:10210000808080000080808080818E7018060100B1
:1021100000808080808080000021302C22213000CF
:1021200000000000807C020200000000003F4040F0
:1021300000000000FF00000000000000FF000000A1
:102140000002027C800000000040403F00000000D0
:10215000000601010202040400000000000000006B
:10216000010202030405060708090A0B0C0D0E0FF5
:102170001010000000000000000001020304060728
:10218000080900000000010203040000AC2100085F
:10219000000000201800000028010008C4210008E9
:1021A0001800002030070000440100080000000073
:1021B000000000000100000010000000000000000E
:0421C00000127A008F
:04000005080000ED02
:00000001FF
