:020000040800F2
:1000000080060020890100080B0C0008690A00081E
:10001000090C00088F0200084510000800000000CD
:10002000000000000000000000000000DF0F0008DA
:100030009102000800000000C90E0008E10F00084E
:10004000A3010008A3010008A3010008A301000800
:10005000A3010008A3010008A3010008A3010008F0
:10006000A3010008A3010008A3010008A3010008E0
:10007000A3010008A3010008A3010008A3010008D0
:10008000A3010008A3010008A3010008A3010008C0
:10009000A3010008A3010008A3010008A3010008B0
:1000A000A3010008A3010008A3010008A3010008A0
:1000B000A3010008A3010008A3010008A301000890
:1000C000A3010008A3010008A3010008A301000880
:1000D000A3010008A3010008A3010008A301000870
:1000E000A3010008A3010008A301000800F002F822
:1000F00000F03AF80AA090E8000C82448344AAF188
:100100000107DA4501D100F02FF8AFF2090EBAE885
:100110000F0013F0010F18BFFB1A43F0010318473B
:1001200090240000B0240000103A24BF78C878C1A1
:10013000FAD8520724BF30C830C144BF04680C60ED
:10014000704700000023002400250026103A28BF35
:1001500078C1FBD8520728BF30C148BF0B60704739
:100160001FB51FBD10B510BD00F05CF81146FFF7BC
:10017000F7FF01F0BFF900F07AF803B4FFF7F2FFE0
:1001800003BC00F07DF8000009488047094800479B
:10019000FEE7FEE7FEE7FEE7FEE7FEE7FEE7FEE737
:1001A000FEE7FEE704480549054A064B7047000094
:1001B00043100008ED0000088000002080060020A9
:1001C00080020020800200204FF0000200B513469C
:1001D00094469646203922BFA0E80C50A0E80C5067
:1001E000B1F12001BFF4F7AF090728BFA0E80C5018
:1001F00048BF0CC05DF804EB890028BF40F8042B11
:1002000008BF704748BF20F8022B11F0804F18BF7D
:1002100000F8012B704770477047704700487047DF
:100220001C0000207546FFF7F9FFAE460500694641
:10023000534620F00700854618B020B5FFF7B2FFFF
:10024000BDE820404FF000064FF000074FF00008D7
:100250004FF0000B21F00701AC46ACE8C009ACE858
:10026000C009ACE8C009ACE8C0098D46704710B5BC
:100270000446AFF300802046BDE81040FFF77DBF85
:1002800001491820ABBEFEE7260002007047FEE7DA
:10029000704700002DE9F84FDFF8B8910024A9F16C
:1002A000040B23460F2709F1040AABF1040EC9E041
:1002B0000125A5402A40AA427DD1674ED1F804C04D
:1002C000ACEB0608B44532D014DCBCF1030F3AD0D5
:1002D00009DCBCF1000F2AD0BCF1010F1CD0BCF12D
:1002E000020F31D11DE0BCF1110F17D0BCF1120F7C
:1002F0002AD119E0B8F5881F19D006DCB8F5803F7F
:1003000015D0B8F5801F1FD111E0B8F5001F0ED031
:10031000B8F5041F18D10AE0CB6815E0CB681B1DA7
:1003200012E0CB6808330FE0CB680C330CE08B682D
:100330002BB1012B4FF0080303D0456104E00423E7
:1003400002E0056100E00023FF2A01D8064601E033
:1003500000F104064FEA840501D9A5F12005D6F87D
:10036000008007FA05FC28EA0C0803FA05F548EABC
:100370000508C6F800804D68ED0062D5374DAE69BE
:1003800046F00106AE61AD6924F0030605F00105F3
:100390000095334D06EB050CDCF80850A607360F28
:1003A00007FA06F825EA0805DFF8B880404503D1CA
:1003B0004FF0000817E044E0DFF8AC80404502D180
:1003C0004FF001080FE0DFF8A480404502D14FF064
:1003D000020808E0DFF89880404502D14FF003089A
:1003E00001E04FF0040808FA06F848EA0508CCF8DE
:1003F00008804D68D9F80060ED024D4601D51643DE
:1004000000E096432E604D68DAF80060AD02554674
:1004100001D5164300E096432E604D68DBF800607E
:10042000AD035D4601D5164300E096432E604D684E
:10043000DEF80060ED03754601D5164300E09643F3
:100440002E60641C0D682A46E5407FF431AFBDE89C
:10045000F88F000008040140000011100010024055
:100460000000014000080140000C01400010014064
:10047000001401408068084000D0012070470AB194
:10048000016170470904FBE701488068704700007C
:100490000C00002002488168027811448160704796
:1004A0000C000020074810B5016841F01001016000
:1004B000032000F067F80F2000F006F800F024F8A1
:1004C000002010BD0020024070B50D4D04464FF4D1
:1004D0007A712878B1FBF0F00A490968B1FBF0F0B5
:1004E00000F0AEFA48B9102C07D200222146501E67
:1004F00000F028F800206C6070BD012070BD000085
:100500000C000020180000200C4808B5816941F05B
:1005100001018161816901F001010091C16941F02E
:100520008051C161C06900F080500090044841686A
:1005300021F0E06141F00071416008BD001002400F
:1005400000000140F0B40E4B1B680C46C3F30223BD
:10055000C3F10705042D00D90425191D072901D26F
:10056000002300E0DB1E012606FA05F1491E2140AA
:1005700099409E40761E16403143F0BC00F077BD96
:100580000CED00E0064900F0070208684FF6FF0393
:10059000184040EA0220034A1043086070470000F8
:1005A0000CED00E00000FA052DE9F0470F460500CC
:1005B00061D0434E306800F00700B84209D230687D
:1005C00020F0070038433060306800F00700B84280
:1005D00051D128683B4C810712D5400703D560688C
:1005E00040F4E06060602878000703D5606840F45C
:1005F000605060606068A96820F0F00008436060A7
:100600002878C00728D06868012810D021680228FF
:1006100010D0890700292EDA616821F00301014317
:100620006160FFF731FF804641F288390DE02168B3
:100630008903EFE78901EDE7FFF726FFA0EB08014B
:10064000494502D90320BDE8F0876068696800F079
:100650000C00B0EB810FEFD1306800F00700B8421A
:100660000BD9306820F0070038433060306800F064
:100670000700B84201D00120E5E72878400705D5FA
:100680006068E96820F4E06008436060287800074B
:1006900006D56068296920F4605040EAC1006060B6
:1006A00000F018F86168084AC1F30311515CC840B2
:1006B0000649086006480068FFF706FF0020C2E709
:1006C0000020024000100240002500081800002011
:1006D000100000200E4A51680E4801F00C03042B54
:1006E00011D0082B0FD10C48C1F38343C903C05C60
:1006F0000AD55168084AC1F34041921E515C054A2F
:100700005043B0FBF1F07047044948437047000084
:100710000010024000127A00F024000800093D0099
:100720002DE9F84F040070D02078C04DC00749D0A3
:100730006868C0F38100012807D06868C0F38100B1
:10074000022809D16868C00306D52868800339D516
:1007500060680028E7D035E06068B0F5803F0BD0D6
:1007600010B1B0F5A02F11D0286820F48030286097
:10077000286820F4802002E0286840F48030286057
:10078000606890B1FFF780FE06460AE0286840F4F2
:1007900080202860F0E700BFFFF776FE801B64280A
:1007A00073D828688003F7D50CE0FFF76DFE064686
:1007B00005E000BFFFF768FE801B6428F0D82868BA
:1007C0008003F7D420789A4E80074FF001094FF04C
:1007D000000839D5686810F00C0F07D06868C0F3BE
:1007E0008100022809D16868C00306D42868800700
:1007F00014D52069012808D110E02069B0B1C6F8ED
:100800000090FFF741FE074605E00AE1FFF73CFED6
:10081000C01B0228C4D828688007F7D528686169FA
:1008200020F0F80040EAC10028600DE0C6F8008022
:10083000FFF72AFE074604E0FFF726FEC01B02284A
:1008400023D828688007F7D4207800072CD579486A
:10085000A169D9B1C0F80090FFF716FE074604E081
:10086000FFF712FEC01B02280FD8686A8007F7D571
:1008700071484FF4FA510068B0FBF1F0009000BFEE
:100880000098411E0091FAD20EE080E0C0F800808E
:10089000FFF7FAFD074604E0FFF7F6FDC01B02284C
:1008A00075D8686A8007F7D42078400760D5E86972
:1008B0000027C00008D4E86940F08050E861E8698A
:1008C000012700F0805000905C480168C90513D4EE
:1008D0000168834641F480710160FFF7D5FD8246CF
:1008E00006E000BFFFF7D0FDA0EB0A0064284ED859
:1008F000DBF80000C005F5D5E06801280AD008B192
:10090000052813D0286A20F001002862286A20F008
:10091000040002E0286A40F001002862E06841F229
:10092000883B98B1FFF7B0FD82460BE0286A40F0A3
:1009300004002862EEE700BFFFF7A6FDA0EB0A0166
:1009400059455AD8286A8007F6D50CE0FFF79CFD78
:10095000824605E0FFF798FDA0EB0A0159454CD807
:10096000286A8007F6D41FB1E86920F08050E8615A
:10097000E06988B36968C1F38101022944D0022883
:10098000C6F8608004D0FFF77FFD044638E034E00D
:10099000FFF77AFD074604E0FFF776FDC01B02284B
:1009A0002BD828688001F7D4206AB0F5803F05D1A4
:1009B0006868A16820F4003008436860D4E9080141
:1009C0000843696821F4741108436860C6F86090B0
:1009D000FFF75AFD044606E025E000BFFFF754FD8F
:1009E000001B022809D828688001F7D51BE000BF4A
:1009F000FFF74AFD001B022802D90320BDE8F88F4B
:100A000028688001F4D40EE00128F7D06868226AD3
:100A100000F48031914204D1616A00F47010884280
:100A200001D00120EAE70020E8E7000000100240C2
:100A30000000424280044242180000200070004042
:100A400010B5401EB0F1807F01D3012010BD4FF0E2
:100A5000E02460610F21601700F009FB0020A06115
:100A600007202061002010BDFEE700F07DB80000E7
:100A70004FF400610148FFF7FDBC0000000C01408D
:100A800010B5012000F068F8012000F05DF8FFF7D4
:100A9000EFFF0446002000F057F8204610BD70B567
:100AA0000025012000F058F800248026012000F0E5
:100AB0004BF8FFF7DDFF10B126FA04F005430020E4
:100AC00000F042F8641CE4B2082CEFD3284670BD55
:100AD00010B500F041F8012000F036F8BDE81040F4
:100AE000002000F031B870B500240646802525FAB4
:100AF00004F0304000D0012000F02EF8012000F07A
:100B000023F8002000F020F8641CE4B2082CEED397
:100B100070BD10B5012000F01FF8012000F014F89E
:100B2000002000F019F8BDE81040002000F00CB8DB
:100B300010B5002000F010F8012000F005F8BDE825
:100B40001040012000F008B802464FF480610148CF
:100B5000FFF795BC000C014002464FF400610148CC
:100B6000FFF78DBC000C0140F0B585B0002424488F
:100B70000094019402940394816941F01001816111
:100B8000816901F010010491816941F020018161C6
:100B9000816901F020010491816941F008018161BE
:100BA000816901F008010491816941F004018161CA
:100BB0008069144F00F004004FF440650490012256
:100BC00029463846FFF75BFCAE1000223146384616
:100BD000FFF755FC009511250120CDE901500320B8
:100BE000039069463846FFF755FB0220CDE90240E5
:100BF000CDE9006569463846FFF74CFB05B0F0BD0E
:100C000000100240000C0140FEE7FEE770B5002432
:100C10000021204600F0ADF80025002000F043F947
:100C20006D1CEDB2802DF8D3641CE4B2082CEFD318
:100C300070BD10B5FFF798FF012000F013F9BDE873
:100C40001040012000F016B970B50024054680263A
:100C500026FA04F0284000D0012000F00BF9012012
:100C600000F000F9002000F0FDF8641CE4B2082C4C
:100C7000EED3012000F0F6F8BDE87040002000F04F
:100C8000F1B810B5012000F0F5F8012000F0EAF805
:100C9000002000F0EFF8BDE81040002000F0E2B8BE
:100CA00010B5002000F0E6F8012000F0DBF8BDE808
:100CB0001040012000F0DEB810B500204FF47A7229
:100CC0000021491C9142FCD3401C9042F8D3FFF70D
:100CD000B0FFAE2000F0D6F8D52000F0D3F8802089
:100CE00000F0D0F8A82000F0CDF83F2000F0CAF8BE
:100CF000D32000F0C7F8002000F0C4F8402000F036
:100D0000C1F8A12000F0BEF8C82000F0BBF8DA203E
:100D100000F0B8F8122000F0B5F8812000F0B2F829
:100D2000CF2000F0AFF8D92000F0ACF8F12000F0AF
:100D3000A9F8DB2000F0A6F8302000F0A3F8A420EA
:100D400000F0A0F8A62000F09DF88D2000F09AF8A1
:100D5000142000F097F8AF2000F094F8BDE81040A0
:100D6000FFF754BF0246012000E05043491EFCD269
:100D7000704710B50C4640F0B00000F083F810202A
:100D800040EA141000F07EF804F00F00BDE81040B7
:100D900000F078B82DE9F0410746CE004000083E4B
:100DA000801E15464FF0FF38F1B2C0B2FFF7E1FFE9
:100DB0001148002400EB05152819A0F5805090F883
:100DC000000E00F070F8641CE4B2082CF4D308EBB9
:100DD0004700F1B2C0B2FFF7CCFF00242819A0F5FC
:100DE000805090F8080E00F05EF8641CE4B2082C05
:100DF000F4D3BDE8F0810000FE1E00082DE9F047A5
:100E000000241D461646884681460A2713E0291B02
:100E10000A20491EFFF7A6FFB6FBF0F0B0FBF7F182
:100E200007FB110208EB0400C1B248463032FFF75D
:100E3000B1FF641CE4B2AC42E9D3BDE8F0872DE910
:100E4000F04115460E460746002406E03019C1B2AF
:100E50003846FFF79FFF641CE4B22A5D002AF5D1F3
:100E6000BDE8F08102464FF400710148FFF707BB6F
:100E7000000C014002464FF480710148FFF7FFBAB1
:100E8000000C014010B50446FFF7FBFE7820FFF789
:100E9000DBFE0020FFF7D8FE2046FFF7D5FEBDE8B9
:100EA0001040FFF7FDBE10B50446FFF7EAFE7820BC
:100EB000FFF7CAFE4020FFF7C7FE2046FFF7C4FE3B
:100EC000BDE81040FFF7ECBE7047000070B5002190
:100ED0001A2000F04AF8044601211A2000F045F8D3
:100EE00044EA0020174C022120801A2000F03DF82F
:100EF000054603211A2000F038F845EA00206080FA
:100F000004211A2000F031F8054605211A2000F0CE
:100F10002CF845EA0020A080208800F06BFD0646F2
:100F20000D46608800F066FD32462B4600F022FA3E
:100F30004FF06632044B00F071FD00F021FBA06021
:100F400070BD00000000002066A64C4010B5FFF701
:100F50008CFD01220B211A2000F028F80922BDE89F
:100F6000104011461A2000F021B870B50D46044615
:100F7000FFF7CFFD2046FFF7B6FDFFF781FD2846BE
:100F8000FFF7B1FDFFF77CFDFFF7C3FD641CE0B286
:100F9000FFF7A9FDFFF774FDFFF781FD0446002070
:100FA000FFF796FDFFF7C4FD204670BD70B51546EE
:100FB0000E460446FFF7ADFD2046FFF794FDFFF710
:100FC0005FFD3046FFF78FFDFFF75AFD2846FFF71C
:100FD0008AFDFFF755FDFFF7ABFD002070BD7047A0
:100FE000FFF758BA30B58FB028216846FFF7ECF804
:100FF00014210AA8FFF7E8F801210804CDE9001040
:101000000024029402250491CDE907504FF4E0102A
:1010100009906846FFF784FB08B172B6FEE70F201F
:10102000CDE90A054FF48060CDE90C4002210AA801
:101030000E94FFF7B9FA002801D072B6FEE70FB0A0
:1010400030BD7047FEE7490050EAC12018BF0420B8
:101050004A0D18BF40F0010040F2FF72B2EB515F41
:1010600008BF40F00200012808BF052070470907AB
:10107000090E002804DB00F1E02080F8001470471E
:1010800000F00F0000F1E02080F8141D70472DE9FA
:10109000F0414F1E00EBC7010446D1E9000115469F
:1010A0001E4637F006020DD02A46334600F0B6FC45
:1010B0007F1E04EBC703D3E9002300F093FA37F057
:1010C0000602F1D1022F25D0042F13D0062F18BF0E
:1010D000BDE8F0812A46334600F0A0FCD4E90A239B
:1010E00000F080FA2A46334600F098FCD4E9082341
:1010F00000F078FA2A46334600F090FCD4E9062343
:1011000000F070FA2A46334600F088FCD4E9042344
:1011100000F068FA2A46334600F080FCD4E9022346
:1011200000F060FA2A46334600F078FCD4E9002348
:10113000BDE8F04100F056BA012200F09ABE00F07E
:1011400051BA0000024A0020110700F092BE0000D0
:1011500001FDFFFF2DE9F84F04460D4621F0004048
:1011600000917349814211DC7249884201DC06D149
:101170002CB120462946BDE8F84FFFF7DDBF6E4889
:10118000002DCCBF6D496E49BDE8F88F6D49814295
:1011900011DD6D498142D8BF4FF0FF366DDD20462D
:1011A0002946FFF750FF042808BFFFF7CBFF204672
:1011B0002946BDE8F88F6549654F25F00045814215
:1011C00033DD6449814219DD002632464FF0804309
:1011D0002046294600F006FA80468A46012220462B
:1011E000294600F046FE00223B4600F021FD424623
:1011F000534600F0A7FA04460D463EE001260022C1
:10120000BA463B462046294600F0ECF980460F4698
:10121000002253462046294600F00AFD42463B463E
:1012200000F090FA04460D4627E04B4981421BDD51
:10123000DFF828A10226002253462046294600F066
:10124000EDFB00223B4600F0CDF980460F46002220
:1012500053462046294600F0EBFC42463B4600F050
:1012600071FA04460D4608E0032622462B4600206C
:101270003B4900F067FA04460D4622462B461046CD
:10128000194600F0CBFB8B46824602460B4600F027
:10129000C5FB07460246334888460B46062178447C
:1012A000FFF7F5FE52465B4600F0B8FB82462E483B
:1012B0008B463A46434605217844FFF7E8FE3A4616
:1012C000434600F0ABFB02460B46002E5046594603
:1012D0000CDA00F087F922462B4600F09FFB01B0A4
:1012E00022462B46BDE8F04F00F096BC00F07AF99C
:1012F00022462B4600F092FB1C4A7A4402EBC603BE
:10130000D3E9002300F094FC22462B4600F090FC29
:10131000174A7A4402EBC603D3E9002300F07CFCB1
:10132000009A002AB8BF81F00041BDE8F88F0000A4
:10133000000010440000F07F182D4454FB21F93FB9
:10134000FB21F9BF0000DC3F0000203E0000F33F1E
:101350000000F03F0000E63F008003400000F83F3F
:101360000000F0BFD61200009412000032120000FC
:10137000FA1100002DE9F04D9446CCF1000423F061
:1013800000464CEA0404524F46EAD4749A46884612
:1013900021F00042BC4206D8454240EA050442EA38
:1013A000D474BC4204D9BDE8F04D6246FFF7C7BE15
:1013B000AAF14055A5F17F6555EA0C040BD0022433
:1013C00004EAAA74434DDFF810E144EAD87452EA03
:1013D000000B04D00CE0BDE8F04DFFF7BBBE002CC5
:1013E00014BF012CBDE8F08D022C30D0032C32D07C
:1013F00056EA0C0B0AD0BE4220D1BA4209D126F0DF
:10140000804622F080423346114617E000291ADB5D
:1014100025E0DFF8C8B0FB44002C04BFDBE9000185
:10142000BDE8F08D012C02BFDBE9000181F0004135
:10143000BDE8F08D022C0AD0032C0CD0BA4212D198
:10144000B8F1000F0BDA23482549BDE8F08D284696
:101450002449BDE8F08D28467146BDE8F08D1D4851
:101460002149BDE8F08D921B12153C2AC4BF1948D2
:101470001D490EDCBAF1000FBEBF12F13C0F002077
:10148000014606DB624600F05DF921F00041FFF7FE
:1014900061FE002C08BFBDE8F08D012C04BF81F077
:1014A0000041BDE8F08D114A114B022C07D000F02D
:1014B000BFFB2A46BDE8F04D0A4B00F0B9BB00F077
:1014C000B7FB2A46BDE8F04D064B00F0A5BB000077
:1014D0000000F07F182D4454FB2109C08E1100003C
:1014E000FB21F9BFFB210940FB21F93F075C1433C5
:1014F00026A6A13CFEF7D6FFFFF774FDFFF734FBED
:10150000FFF7DAFBFFF722FDFFF780FB012113A2B3
:101510000846FFF794FC13A201210220FFF78FFC7D
:1015200012A201210320FFF78AFC124E124C134D28
:10153000FFF7CCFC0523328808210120FFF75EFC71
:101540000523228808210220FFF758FC05232A885A
:1015500008210320FFF752FCEAE70000514D435FEA
:10156000583A0000514D435F593A0000514D435FD6
:101570005A3A000000000020020000200400002071
:1015800021F00042A2F16052B2F5801F01F0004349
:1015900028BFD2F17F6C0BD95FEA001C43EAC2027C
:1015A00042EB507018BF704728BF20F00100704711
:1015B000B2F5801FBCBF184670474FEA410C1CF5BE
:1015C000001F02D2084600F01DBC70B500F0D0FA32
:1015D00000000089FFF7F6BF4FF00040A0F5800043
:1015E0007047000010B591EA030F48BF83F0004335
:1015F00000F12683841A71EB030C05D2121943EB18
:101600000C03001B61EB0C01DFF824E14FEA1154DD
:10161000A4EB135C1EEA430F18BF9EEA445F73D02D
:1016200023EA0E03DCF1200E21EA045143F4801377
:1016300032D322FA0CFE10EB0E0023FA0CFE41EB23
:101640000E01CCF1200E03FA0EFE10EB0E0051F14C
:101650000001B1F5801FCCF1200E32D201EB045114
:1016600012FA0EF2BDE8104058BF7047401C38BF58
:101670005FEA420218BF7047002814BF20F0010043
:1016800041F100014FEA410313F5001F38BF7047D5
:10169000A1F1C04100F0BABA012A43EB0302ACF158
:1016A000200CDCF11F0E32BF4FF0000E23FA0CF3BA
:1016B00010EB030041EB0451B4EB115FD0D0A1EB70
:1016C000045101F5801149085FEA300001EB045133
:1016D0000ED350F1000038BF12FA0EFE08D1BDE85B
:1016E0001040C9E7401C38BF5FEA4202CAD1C3E7D5
:1016F000BDE810404FEA410313F5001F38BF7047A3
:10170000A1F1C04100F082BA9EEA445F08D011EA1C
:101710005E0FBDE8104004BF01F00041002070479B
:10172000BDE8104070B500F023FA00BF64FBBE3E78
:101730000000E0FF02494FF0000000F068BB00BF6E
:101740000000F87F2DE9C04130B4DFF8A0C23CEAC8
:10175000111418BF3CEA131400F0EC8081EA030571
:101760001CEA111444EAD57418BF1CEA131500F0E2
:10177000C780A4EB05044FF0004545EAC12145EAC6
:10178000C32341EA505143EA525304F17F74994212
:1017900004F500344FEAC0204FEAC22208BF90424D
:1017A00000F09C804FEA13650FF24016765D4FEA19
:1017B000134506FB05F7C7F1807706FB07F74FEAED
:1017C000D737A7FB03687642C8F58038A7FB06CE5B
:1017D00038BFA8F1010807FB08E64FF0000EA6FB92
:1017E000028CE6FB03CEDCF1000CCEF1004E38BFDC
:1017F000AEF1010EA6FB0C584FF000074FF00005AC
:10180000E6FB0E87A1FB08C6A0FB07CE16EB0E0673
:1018100045F10005E1FB076515F1E04E7EBFA4F53B
:1018200080345FEA46066D4116F1800745F10005F8
:101830004FEA17274FEA066647EA0567A6F1DE4634
:10184000B6F1805F4FEA15251FD9384624F0010C08
:1018500005EBC471BCF1FE6F01EB0C1102D8F0BCBA
:10186000BDE8008124425CBF01F5801E9EEAC47F72
:1018700002D4F0BCBDE80081244238D4F0BCA1F110
:10188000C041BDE8004100F0C1B94FEAD22242EAAE
:1018900043524FEAD323A7FB02864FEAD02040EA07
:1018A000415007FB03661EEA0E0F4FEAD12105FBEC
:1018B000026658BFA6EB0056B6EB00564FEA520E32
:1018C0004EEAC37E18EB0E0E56EB530EBDD518EB49
:1018D00002085E417F1C55F10005B6E74FF4801504
:1018E0004FF000074FF000064FF00008ADE7F0BCE6
:1018F0004FF0000001F1C04101F00041BDE800815E
:1019000011EA0C1F0CEA131500D00CE013EA0C1FAF
:1019100000F025804FF00000F0BC81EA030101F0E7
:101920000041BDE80081F0BCBDE8004181EA03014F
:1019300000F06CB9F0BCBDE8004170B500F018F9DA
:10194000097EFC3E00F007B881EA03014FF0000079
:1019500001F00041704781EA030100F057B9F0BC83
:10196000BDE800414FF0000021497047FFFDFBF941
:10197000F7F5F4F2F0EEEDEBE9E8E6E4E3E1E0DEC2
:10198000DDDBDAD8D7D5D4D3D1D0CFCDCCCBCAC834
:10199000C7C6C5C4C2C1C0BFBEBDBCBBBAB9B8B75B
:1019A000B6B5B4B3B2B1B0AFAEADACABAAA9A8A84E
:1019B000A7A6A5A4A3A3A2A1A09F9F9E9D9C9C9B1C
:1019C0009A999998979796959594939392919190C7
:1019D0008F8F8E8E8D8C8C8B8B8A89898888878758
:1019E0008685858484838382828181800000FF07CD
:1019F0000000F87FB0FA80F310FA03F10AD0C3F1C7
:101A00001D0303F580634FEA41504FEA035202EB96
:101A1000D12170474FF0000070470000DFF848C147
:101A200070B51CEA111E1EBF1CEA13159EEA0C0FAE
:101A300095EA0C0F00F06F8081EA030423EA4C134F
:101A40004EEAD47E21EA4C1141F4801143F4801314
:101A5000AE44A1FB024CA0FB0365AEF17F7E3619BC
:101A600055EB0C05A1FB034C4CF10003A0FB021C41
:101A700016EB0C06654153F10003094218BF46F00E
:101A8000010613F4007F0BD14FEA03314FEA053012
:101A9000340341EA155140EA16506FF003020AE0A0
:101AA0004FEAC3214FEAC520F40241EA555140EA0A
:101AB00056506FF0020202EB2E4201EB025585EA0E
:101AC000CE710AD05FEA440C18BF24F0004450F1F4
:101AD000000041F1000120EAD47040F2FE7C624532
:101AE00000D270BDA84214BF4FF080444FF0404474
:101AF000002E08BF0024BEF1806FA8BFA1F1C04135
:101B0000BDE8704080F282804FF0000001F1C041DA
:101B100001F0004170479EEA0C0F0CEA131518BF44
:101B200095EA0C0F06D04FF0000081EA030E0EF08C
:101B3000004170BD00F01CF88900013E00F007B8BC
:101B400000F009B84FEA430C5FEA5C5C08D081EA18
:101B5000030100F05BB84FEA410C5FEA5C5CF6D130
:101B60004FF00000014970470000FF070000F87FB8
:101B70000EF1020E2EF0030E5EF8046B364205D411
:101B8000012A43EB030515F5001F12D8012841EB8C
:101B9000010C1CF5001F0CD80ED14FEAD17C15F5B5
:101BA000001F0CEB4C0C0CF1020C08BF4CEBD37C6F
:101BB00004E04FF0080C01E04FEAD37C0CEB4C053D
:101BC00026FA05F606F00706B6F1040C06D20EEB6F
:101BD000860CBDE870404CF0010C6047DFE80CF06B
:101BE000090B02024FF000414FF00000A1F5002167
:101BF00070BD19461046012851EB010418BFD4F5F9
:101C0000001484BF002001F0004170BD0808A0F559
:101C100000114FEA3101704791EA030F10B581F0CE
:101C200000413FF5E7AC83F0004300F009B8000045
:101C300010B591EA030F48BF83F000433FF5DAACDB
:101C4000841A71EB030C07D212198CF0004C43EB91
:101C50000C03001B61EB0C01DFF8A4E14FEA115407
:101C6000A4EB135C1EEA430F18BF9EEA445F00F02A
:101C7000B08023EA6E03524221EA0451C3EB6E03A3
:101C800038BF5B1EDCF1200E25D322FA0CFE10EBD0
:101C90000E0043FA0CFE41EB0E01CCF1200E03FACC
:101CA0000EFE10EB0E0051F10001CCF1200E29D4F4
:101CB00012FA0EF201EB0451BDE8104058BF704714
:101CC000401C1CBFB2F1004F704700280CBF491CDC
:101CD00020F00100704712EB020E43EB030218BF25
:101CE0004FF0010E4EEA4202ACF1200CDCF11E0E68
:101CF00054D943FA0CFE10EB0E0051F1FF31CCF138
:101D00001E0ED5D50EF1010E12FA0EFE404141EB2A
:101D1000010101EB445C5FEA5C5C10D910EBDE7002
:101D200001EB045138BFBEF1004FBDE8104018BFB1
:101D3000704700280CBF491C20F00100704730D2CA
:101D40004FEAD42C11F5001124F400641BD0B1FA31
:101D500081F20B3AA41AA41ED2F12003914030FA6A
:101D600003F31943904001EBCC71002C01EB0451BB
:101D7000BDE81040A8BF704701F1C0414FF000001E
:101D800001F000417047B0FA80F310FA03F100D17E
:101D900010BDE41A173C4805C90AE4E701EB0451F9
:101DA00010BD491001EB0451BDE810404FEA30006E
:101DB00002E04FF0000170474A0008BF0042F8D02F
:101DC000B2F5001F28BF704701F000414FF000003E
:101DD00070479EEA445F07D011EA5E0FBDE81040ED
:101DE00004BF002100207047BDE8104070B5FFF728
:101DF000BFFE00BF40DFF63E83F000411046704753
:101E00000000E0FFFF2141EAD050C00570470CF010
:101E10000F03092B08BF082000F059800A2B0BD0B4
:101E2000082B18BF704708BF1CF0400F0AD04FF0B6
:101E300000004FF0000170471CF0400F18BF4FF03A
:101E4000004070471CF0100F08D020F0704300F0E5
:101E50007F4242EAD3014FEA4370704700F060408E
:101E600021F07F4242EA000201F07F4040EA7270B6
:101E700070474FF0FF0C4CF4E06C1CEA11531CBF90
:101E80009CEA030C9445C2BFDA4201EB0251704751
:101E9000002B0DD0BCF1000F0FD0002A01F0004143
:101EA000A4BF41F0E04141F07F614FF00000704776
:101EB00001F000414FF00000704750EA01334FF04D
:101EC0009B0C18BF4CF0806C7FF434AC70471CF452
:101ED000801F11D01CF4E02F03D06FEACC314900F1
:101EE00070474FF04050EFF3008222F0704242EA18
:101EF000000282F3008870474FF000007047000036
:101F000000000000000000000000000000000000D1
:101F100000F8000000000000003330000000001056
:101F20000C06100C0600000000000000000040C07D
:101F30007840C0784000043F04043F04040000706F
:101F400088FC08300000001820FF211E0000F00867
:101F5000F000E018000000211C031E211E0000F00C
:101F60000888700000001E21232419272110101654
:101F70000E00000000000000000000000000000053
:101F800000E01804020000000007182040000002D2
:101F90000418E00000000040201807000000404046
:101FA00080F0804040000202010F010202000000A8
:101FB00000F0000000000101011F0101010000000C
:101FC00000000000000080B0700000000000000071
:101FD00000000000000000010101010101010000FA
:101FE0000000000000000030300000000000000091
:101FF000000080601804006018060100000000E086
:1020000010080810E000000F102020100F00001032
:1020100010F8000000000020203F20200000007089
:102020000808088870000030282422213000003081
:102030000888884830000018202020110E00000079
:10204000C02010F8000000070424243F240000F8FA
:102050000888880808000019212020110E0000E0DF
:10206000108888180000000F112020110E00003881
:102070000808C83808000000003F00000000007099
:10208000880808887000001C222121221C0000E022
:1020900010080810E0000000312222110F0000009B
:1020A00000C0C00000000000003030000000000050
:1020B00000800000000000008060000000000000C0
:1020C0008040201008000001020408102000404059
:1020D000404040404000040404040404040000089C
:1020E0001020408000000020100804020100007051
:1020F00048080808F0000000003036010000C03039
:10210000C828E810E0000718272423140B0000005B
:10211000C038E0000000203C23020227382008F8E5
:10212000888888700000203F202020110E00C030D9
:10213000080808083800071820202010080008F8B0
:1021400008080810E000203F202020100F0008F8A9
:102150008888E8081000203F20202320180008F875
:102160008888E8081000203F200003000000C030ED
:1021700008080838000007182020221E020008F86E
:1021800008000008F808203F210101213F20000835
:1021900008F8080800000020203F20200000000070
:1021A0000808F8080800C08080807F00000008F858
:1021B00088C028180800203F20012638200008F891
:1021C000080000000000203F20202020300008F8F8
:1021D000F800F8F80800203F003F003F200008F812
:1021E00030C00008F808203F200007183F00E0102A
:1021F00008080810E0000F10202020100F0008F839
:1022000008080808F000203F210101010000E0104B
:1022100008080810E0000F18242438504F0008F870
:10222000888888887000203F2000030C30200070D0
:102230008808080838000038202121221C001808CE
:1022400008F8080818000000203F2000000008F8E7
:1022500008000008F808001F202020201F00087830
:10226000880000C83808000007380E010000F80890
:1022700000F80008F800033C0700073C03000818BA
:1022800068808068180820302C03032C3020083820
:10229000C800C83808000000203F200000001008D7
:1022A0000808C8380800203826212020180000001F
:1022B00000FE020202000000007F40404000000CCF
:1022C00030C000000000000000010638C00000021D
:1022D0000202FE000000004040407F0000000000BD
:1022E00004020202040000000000000000000000E0
:1022F00000000000000080808080808080800002DC
:1023000002040000000000000000000000000000C7
:102310008080808000000019242222223F2008F8BB
:10232000008080000000003F112020110E000000FE
:10233000008080800000000E11202020110000008D
:1023400000808088F800000E112020103F2000003F
:10235000808080800000001F222222221300008043
:1023600080F0888888180020203F2020000000008E
:10237000808080808000006B94949493600008F8C3
:10238000008080800000203F210000203F2000804E
:102390009898000000000020203F2020000000004E
:1023A00000809898000000C08080807F000008F8BE
:1023B000000080808000203F24022D302000000893
:1023C00008F8000000000020203F2020000080804E
:1023D000808080808000203F20003F20003F808060
:1023E000008080800000203F210000203F2000006E
:1023F000808080800000001F202020201F0080801F
:1024000000808000000080FFA12020110E0000004D
:10241000008080808000000E112020A0FF8080803E
:1024200080008080800020203F21200001000000EB
:1024300080808080800000332424242419000080C0
:1024400080E0808000000000001F202000008080CD
:10245000000000808000001F202020103F2080808E
:1024600080000080808000010E300806010080801E
:102470000080008080800F300C030C300F00008043
:102480008000808080000020312E0E31200080806E
:1024900080000080808080818E701806010000809E
:1024A0008080808080000021302C222130000000BC
:1024B0000000807C020200000000003F404000005D
:1024C0000000FF00000000000000FF00000000020C
:1024D000027C800000000040403F00000000000639
:1024E00001010202040400000000000000000102DB
:1024F00002030405060708090A0B0C0D0E0F101045
:1025000000000000000000000102030406070809A3
:102510004FBB610567ACDD3F182D4454FB21E93FFB
:102520009BF681D20B73EF3F182D4454FB21F93FEA
:10253000E2652F227F2B7A3C075C143326A6813C70
:10254000BDCBF07A8807703C075C143326A6913C1B
:10255000C4EB98999999C9BF711623FEC671BCBF87
:102560006D9A74AFF2B0B3BF9AFDDE522DDEADBFEF
:102570002F6C6A2C44B4A2BF0D5555555555D53F07
:10258000FF8300922449C23F6E204CC5CD45B73F22
:10259000513DD0A0660DB13FEB0D76244B7BA93F9A
:1025A00011DA22E33AAD903F000000000000000085
:1025B000D0250008000000201C00000028010008B1
:1025C000EC2500081C0000206406000044010008FF
:1025D00000000000000000000000000001000000FA
:0C25E000100000000000000000127A0053
:04000005080000ED02
:00000001FF
