:020000040800F2
:10000000E80600208901000877150008751000082F
:10001000751500088F020008431900080000000051
:10002000000000000000000000000000DD180008D3
:10003000E90200080000000079180008DF18000835
:10004000A3010008A3010008A3010008A301000800
:10005000A3010008A3010008A3010008A3010008F0
:10006000A3010008A3010008A3010008A3010008E0
:10007000A3010008A3010008A3010008A3010008D0
:10008000A3010008A3010008A3010008A3010008C0
:10009000A3010008A3010008A3010008A3010008B0
:1000A000A3010008A3010008A3010008A3010008A0
:1000B000A3010008A3010008A3010008A301000890
:1000C000A3010008A3010008A3010008A301000880
:1000D000A3010008A3010008A3010008A301000870
:1000E000A3010008A3010008A301000800F002F822
:1000F00000F03AF80AA090E8000C82448344AAF188
:100100000107DA4501D100F02FF8AFF2090EBAE885
:100110000F0013F0010F18BFFB1A43F0010318473B
:10012000702E0000902E0000103A24BF78C878C1CD
:10013000FAD8520724BF30C830C144BF04680C60ED
:10014000704700000023002400250026103A28BF35
:1001500078C1FBD8520728BF30C148BF0B60704739
:100160001FB51FBD10B510BD00F05CF81146FFF7BC
:10017000F7FF01F03DFE00F07AF803B4FFF7F2FF5D
:1001800003BC00F07DF8000009488047094800479B
:10019000FEE7FEE7FEE7FEE7FEE7FEE7FEE7FEE737
:1001A000FEE7FEE704480549054A064B7047000094
:1001B00041190008ED000008E8000020E8060020D2
:1001C000E8020020E80200204FF0000200B51346CC
:1001D00094469646203922BFA0E80C50A0E80C5067
:1001E000B1F12001BFF4F7AF090728BFA0E80C5018
:1001F00048BF0CC05DF804EB890028BF40F8042B11
:1002000008BF704748BF20F8022B11F0804F18BF7D
:1002100000F8012B704770477047704700487047DF
:10022000840000207546FFF7F9FFAE4605006946D9
:10023000534620F00700854618B020B5FFF7B2FFFF
:10024000BDE820404FF000064FF000074FF00008D7
:100250004FF0000B21F00701AC46ACE8C009ACE858
:10026000C009ACE8C009ACE8C0098D46704710B5BC
:100270000446AFF300802046BDE81040FFF77DBF85
:1002800001491820ABBEFEE7260002007047FEE7DA
:1002900042F21072B0FBF2F3124930330B71B0FB33
:1002A000F2F302FB13004FF47A72B0FBF2F3303337
:1002B000CB70B0FBF2F302FB13006422B0FBF2F34D
:1002C00030338B70B0FBF2F302FB13000A22B0FB59
:1002D000F2F330334B70B0FBF2F302FB130030301B
:1002E0000870704700000020704772B6FEE70000FB
:1002F00070B5044600F004F90546601C02D00448BD
:100300000078044400F0FCF8401BA042FAD370BD12
:10031000200000202DE9F84FDFF8B8910024A9F162
:10032000040B23460F2709F1040AABF1040EC9E0C0
:100330000125A5402A40AA427DD1674ED1F804C0CC
:10034000ACEB0608B44532D014DCBCF1030F3AD054
:1003500009DCBCF1000F2AD0BCF1010F1CD0BCF1AC
:10036000020F31D11DE0BCF1110F17D0BCF1120FFB
:100370002AD119E0B8F5881F19D006DCB8F5803FFE
:1003800015D0B8F5801F1FD111E0B8F5001F0ED0B1
:10039000B8F5041F18D10AE0CB6815E0CB681B1D27
:1003A00012E0CB6808330FE0CB680C330CE08B68AD
:1003B0002BB1012B4FF0080303D0456104E0042367
:1003C00002E0056100E00023FF2A01D8064601E0B3
:1003D00000F104064FEA840501D9A5F12005D6F8FD
:1003E000008007FA05FC28EA0C0803FA05F548EA3C
:1003F0000508C6F800804D68ED0062D5374DAE693E
:1004000046F00106AE61AD6924F0030605F0010572
:100410000095334D06EB050CDCF80850A607360FA7
:1004200007FA06F825EA0805DFF8B880404503D149
:100430004FF0000817E044E0DFF8AC80404502D1FF
:100440004FF001080FE0DFF8A480404502D14FF0E3
:10045000020808E0DFF89880404502D14FF0030819
:1004600001E04FF0040808FA06F848EA0508CCF85D
:1004700008804D68D9F80060ED024D4601D516435D
:1004800000E096432E604D68DAF80060AD025546F4
:1004900001D5164300E096432E604D68DBF80060FE
:1004A000AD035D4601D5164300E096432E604D68CE
:1004B000DEF80060ED03754601D5164300E0964373
:1004C0002E60641C0D682A46E5407FF431AFBDE81C
:1004D000F88F0000080401400000111000100240D5
:1004E0000000014000080140000C014000100140E4
:1004F000001401400AB1016170470904FBE70000E4
:1005000001488068704700002000002070B504009A
:1005100025D094F83D00002520B984F83C502046B1
:1005200000F07EFA242084F83D002068016821F064
:10053000010101602068016841F400410160206808
:10054000016821F40041016000F0BAFB4D4A616886
:10055000914201D84C4900E04C49884201D2012027
:1005600070BD4B492368B0FBF1F15E6826F03F0691
:100570000E435E606368934206D94FF49673594305
:100580004FF47A73B1FBF3F12368491C1E6A26F01D
:100590003F06314319626168914210D84900401EFC
:1005A000B0FBF1F2521CC2F30B02042A01D2042068
:1005B00022E0B0FBF1F0401CC0F30B001CE0A2688D
:1005C000F2B301EBC10303EB0116431EB3FBF6F3D9
:1005D0005B1C43F480431B0549D092B301EBC1027D
:1005E00002EB0111401EB0FBF1F0401CC0F30B0008
:1005F00040F4804040F400402168CA694CF6FF7323
:100600009A431043C861D4E9071001432068026887
:1006100022F0C00211430160D4E9030101432068C4
:10062000826848F2FF339A4311438160D4E905019F
:1006300008432168CA6822F0FF021043C86001E045
:100640000EE016E02068016841F0010101602564B8
:10065000202084F83D00256384F83E50002070BDC2
:1006600001EB4106431EB3FBF6F35B1CB3E701202D
:10067000C2E701EB4101401EB0FBF1F0401CC0F3AA
:100680000B00B7E7A086010080841E0000093D0032
:1006900040420F002DE9FF4F83B00025DDE91079BE
:1006A0009A4693460446DDF848800095FFF728FFF8
:1006B000064694F83D0020287CD119230122884960
:1006C0002046009600F0ECFD0028F5D194F83C009F
:1006D00001286FD0012084F83C0020680168C90718
:1006E00003D1016841F0010101602068016821F433
:1006F00000610160222084F83D00402084F83E0023
:1007000025646762A4F82A90608D20857548E062B0
:10071000CDE9008653465A462046049900F0C2FCB3
:1007200000287CD1208DDFF8C091202768B10128F6
:1007300014D00228206801681ED041F48061016055
:100740002068416980690090BCE020684169816946
:100750000091016841F400710160B3E02068016814
:1007600021F48061016072B620684169816900915D
:10077000016841F400710AE041F40061016072B661
:100780002068416981690091016821F480610160FC
:1007900062B697E0032865D801280CD002284346AA
:1007A0004FF000024946204600960BD000F078FD3D
:1007B000A8BB0CE091E032464146204600F016FE10
:1007C00068BB72E000F06CFD48BB72B633E0206895
:1007D000016821F48061016072B620680069616A75
:1007E0000870606A401C6062208D401E2085608D0C
:1007F000401E60853D4846F2A8110068B0FBF1F04C
:10080000C0EBC00000EB80000090401E009007D0BD
:1008100020684069C04340070DD50098F5E727E000
:1008200044F8305F6773A573206940F020002061B1
:1008300062B625731CE02068016841F40071016014
:1008400020680069616A0870606A401C6062218DDE
:10085000491E2185618D491E618562B6216809693D
:10086000017026E032464146204600F0BFFD18B137
:10087000012007B0BDE8F08F20680069616A087048
:10088000606A401C6062208D401E81B22185608DAF
:10089000401E608520684269D243520712D4032962
:1008A00003D1016821F48061016020680069616AF8
:1008B0000870606A401C6062208D401E2085608D3B
:1008C000401E6085208D00287FF464AF84F83D7061
:1008D00084F83E5084F83C50CBE70220C9E7000082
:1008E000020010000000FFFF040001002C000020A7
:1008F0002DE9FF4F83B09A46DDE9119793460446F0
:10090000DDF84080FFF7FCFD054694F83D00202807
:100910007FD11923012240492046009500F0C0FCF8
:10092000002876D194F83C00012872D0012084F888
:100930003C0020680168C90703D1016841F001014A
:1009400001602068016821F400610160212084F8C1
:100950003D00402084F83E0000262664C4F8248030
:10096000A4F82A90608D20852C48E062CDE90075BE
:1009700053465A462046049900F012FC70B930E004
:100980002A463946204600F069FD58B1206C0428FB
:1009900004D12068016841F400710160012007B0B2
:1009A000BDE8F08F606A216800780861606A401CC9
:1009B0006062218D491E89B22185628D521E628539
:1009C00022685369DB435B070BD469B1007810617F
:1009D000606A401C6062208D401E2085608D401E34
:1009E0006085208D0028CBD12A463946204600F06C
:1009F0002BFC0028CAD154F83D0B016841F400716A
:100A00000160202004F81E09E67766770020C6E71B
:100A1000FFE70220C3E70000020010000000FFFF14
:100A200010B586B0002100910191029103910068F8
:100A3000104988421BD1104CA06940F00800A06109
:100A4000A069694600F0080004904FF440600090EF
:100A500012200190032003900848FFF75BFCE06937
:100A600040F48000E061E06900F48000049006B08A
:100A700010BD00000058004000100240000C014072
:100A8000024881680278114481607047200000208C
:100A9000074810B5016841F010010160032000F023
:100AA00067F80F2000F006F800F024F8002010BDD1
:100AB0000020024070B50D4D04464FF47A7128783D
:100AC000B1FBF0F00A490968B1FBF0F000F0BEFAA2
:100AD00048B9102C07D200222146501E00F028F8F9
:100AE00000206C6070BD012070BD0000200000205F
:100AF0002C0000200C4808B5816941F0010181619A
:100B0000816901F001010091C16941F08051C16129
:100B1000C06900F0805000900448416821F0E06115
:100B200041F00071416008BD00100240000001402A
:100B3000F0B40E4B1B680C46C3F30223C3F1070548
:100B4000042D00D90425191D072901D2002300E036
:100B5000DB1E012606FA05F1491E214099409E4000
:100B6000761E16403143F0BC00F000BF0CED00E0F3
:100B7000064900F0070208684FF6FF03184040EAF4
:100B80000220034A10430860704700000CED00E0AB
:100B90000000FA052DE9F0470F46050061D0434EED
:100BA000306800F00700B84209D2306820F0070032
:100BB00038433060306800F00700B84251D12868EF
:100BC0003B4C810712D5400703D5606840F4E060D4
:100BD00060602878000703D5606840F4605060606A
:100BE0006068A96820F0F000084360602878C007BA
:100BF00028D06868012810D02168022810D0890701
:100C000000292EDA616821F0030101436160FFF7DA
:100C100077FC804641F288390DE021688903EFE7CF
:100C20008901EDE7FFF76CFCA0EB0801494502D90B
:100C30000320BDE8F0876068696800F00C00B0EB45
:100C4000810FEFD1306800F00700B8420BD930684F
:100C500020F0070038433060306800F00700B842E9
:100C600001D00120E5E72878400705D56068E968EC
:100C700020F4E060084360602878000706D56068CB
:100C8000296920F4605040EAC100606000F028F853
:100C90006168084AC1F30311515CC8400649086005
:100CA00006480068FFF706FF0020C2E70020024068
:100CB00000100240D62E00082C0000202400002046
:100CC0000448054900684968044AC1F30221515C9F
:100CD000C84070472C00002000100240E62E00089B
:100CE0000E4A51680E4801F00C03042B11D0082B5A
:100CF0000FD10C48C1F38343C903C05C0AD55168C6
:100D0000084AC1F34041921E515C054A5043B0FB72
:100D1000F1F070470449484370470000001002405A
:100D200000127A00C62E000800093D002DE9F84F98
:100D3000040070D02078C04DC00749D06868C0F367
:100D40008100012807D06868C0F38100022809D11A
:100D50006868C00306D52868800339D56068002814
:100D6000E7D035E06068B0F5803F0BD010B1B0F54A
:100D7000A02F11D0286820F480302860286820F443
:100D8000802002E0286840F480302860606890B1DC
:100D9000FFF7B6FB06460AE0286840F4802028608A
:100DA000F0E700BFFFF7ACFB801B642873D828680E
:100DB0008003F7D50CE0FFF7A3FB064605E000BF74
:100DC000FFF79EFB801B6428F0D828688003F7D4C7
:100DD00020789A4E80074FF001094FF0000839D56E
:100DE000686810F00C0F07D06868C0F38100022813
:100DF00009D16868C00306D42868800714D5206923
:100E0000012808D110E02069B0B1C6F80090FFF7C2
:100E100077FB074605E00AE1FFF772FBC01B0228DB
:100E2000C4D828688007F7D52868616920F0F800E1
:100E300040EAC10028600DE0C6F80080FFF760FBC3
:100E4000074604E0FFF75CFBC01B022823D8286894
:100E50008007F7D4207800072CD57948A169D9B14B
:100E6000C0F80090FFF74CFB074604E0FFF748FB93
:100E7000C01B02280FD8686A8007F7D571484FF465
:100E8000FA510068B0FBF1F0009000BF0098411EDD
:100E90000091FAD20EE080E0C0F80080FFF730FB4E
:100EA000074604E0FFF72CFBC01B022875D8686AD0
:100EB0008007F7D42078400760D5E8690027C00094
:100EC00008D4E86940F08050E861E869012700F043
:100ED000805000905C480168C90513D401688346BE
:100EE00041F480710160FFF70BFB824606E000BF12
:100EF000FFF706FBA0EB0A0064284ED8DBF80000E1
:100F0000C005F5D5E06801280AD008B1052813D03E
:100F1000286A20F001002862286A20F0040002E01C
:100F2000286A40F001002862E06841F2883B98B1ED
:100F3000FFF7E6FA82460BE0286A40F004002862D8
:100F4000EEE700BFFFF7DCFAA0EB0A0159455AD8DB
:100F5000286A8007F6D50CE0FFF7D2FA824605E052
:100F6000FFF7CEFAA0EB0A0159454CD8286A800752
:100F7000F6D41FB1E86920F08050E861E06988B3D9
:100F80006968C1F38101022944D00228C6F8608053
:100F900004D0FFF7B5FA044638E034E0FFF7B0FAC2
:100FA000074604E0FFF7ACFAC01B02282BD82868DC
:100FB0008001F7D4206AB0F5803F05D16868A16848
:100FC00020F4003008436860D4E9080108436968E8
:100FD00021F4741108436860C6F86090FFF790FA36
:100FE000044606E025E000BFFFF78AFA001B02284E
:100FF00009D828688001F7D51BE000BFFFF780FA09
:10100000001B022802D90320BDE8F88F2868800160
:10101000F4D40EE00128F7D06868226A00F4803129
:10102000914204D1616A00F47010884201D001201D
:10103000EAE70020E8E7000000100240000042421A
:10104000800442422C0000200070004010B5401E79
:10105000B0F1807F01D3012010BD4FF0E02460612A
:101060000F21601700F082FC0020A06107202061A2
:10107000002010BDFEE701684A69D24352050FD433
:101080006FF480624A61002140F8301F20224273D1
:101090008173026942F0040202610173012070470A
:1010A000002070472DE9F84F0446006889460B9DE3
:1010B00001689846174641F4806101602068016824
:1010C00041F48071016000954FF0011B00225946E8
:1010D00020460A9B00F0E4F84FF4007A40B1206803
:1010E0000068C00501D5C4F840A00320BDE8F88F12
:1010F000216809F0FE0008612B46284920460A9A1B
:1011000000F016F9F0BB20684169806900902A461A
:1011100020460A9900F0A2F940B1206C04283AD187
:101120002068016841F40071016034E0FEB2B8F15A
:10113000010F09D02168380A08612A4620460A9919
:1011400000F08CF90028E8D1206806612A46204684
:101150000A9900F083F90028DFD12068016841F482
:101160008071016000950022594620460A9B00F0DC
:1011700097F80028B3D1216809F0FF0040F0010082
:10118000086100E007E02B46044920460A9A00F077
:10119000CFF80028AAD00120A8E700000200010033
:1011A0002DE9F843044600680D46DDE9089701681B
:1011B0009846164641F4807101604B4600224FF07C
:1011C00001112046009700F06BF848B120680068D4
:1011D000C00502D54FF4007020640320BDE8F883F9
:1011E000216805F0FE0008613B464A461549204645
:1011F00000F09EF888B920684169806900903A46FD
:101200004946204600F02AF948B1206C042804D150
:101210002068016841F4007101600120DEE7F5B249
:10122000B8F1010F09D02168300A08613A464946F1
:10123000204600F013F90028E7D12068056100205E
:10124000CCE700000200010070B516460D460446CA
:101250001EE02046FFF70FFF08B1012070BD681C9B
:1012600016D0FFF74DF9801BA84200D885B9206839
:101270004069C04340070BD5002044F8300F2021BF
:101280006173A073216941F0200121612073E4E7BB
:1012900020684069C0434007DBD4002070BD0000D7
:1012A0002DE9F047984617460D460446C1F3074618
:1012B000DDF820902AE000BFB8F1FF3F26D0FFF70D
:1012C0001FF9A0EB0901414502D8B8F1000F1DD16B
:1012D0002068012E16D0806925EA00000004000C69
:1012E00012D00020B84211D1002044F8300F202144
:1012F0006173A073216941F02001216120730120F5
:10130000BDE8F0874069E7E70120EBE72068012EA0
:101310000AD0806925EA00000004000C06D00020F5
:10132000B842C9D00020EBE74069F3E70120F7E7B6
:101330002DE9F047984616460D4604464FF0000941
:101340004FF0200AC1F3074723E020684069C043FB
:10135000400515D42068016841F4007101602168DE
:101360006FF480604861C4F8309084F83DA084F840
:101370003E90216C41F00401216484F83C9021E00E
:10138000701C06D0FFF7BCF8A0EB0800B04203D8F1
:1013900016B1012F1FD021E02068012F15D08069E0
:1013A00025EA00000004000C18D000BF44F8309F6C
:1013B00084F80DA084F80E90216941F0200121618C
:1013C00084F80C900120BDE8F087406925EA000010
:1013D0000004000CEAD12068406901E020688069BF
:1013E00025EA00000004000CAFD1ECE72DE9F04144
:1013F000002590460E460446202728E04069C04359
:10140000C0060CD454F8301B6FF01000486144F84B
:1014100010596777A577206A2062257714E0FFF7D7
:101420006FF8A0EB0800B04200D886B92068406988
:10143000C04340060BD544F8305F6773A57320693D
:1014400040F02000206125730120BDE8F081206874
:101450004169C9434906D1D40020F6E770B5164664
:101460000D4604461EE02046FFF705FE08B10120A8
:1014700070BD681C16D0FFF743F8801BA84200D847
:1014800085B920684069C04300060BD5002044F8A8
:10149000300F20216173A073216941F02001216187
:1014A0002073E4E720684069C0430006DBD40020D5
:1014B00070BD000070B586B000241C4800940194F3
:1014C00002940394816941F010018161816901F006
:1014D00010010491816941F020018161816901F06D
:1014E00020010491816941F008018161816901F065
:1014F00008010491816941F00401816180690C4E09
:1015000000F004004FF44075049000222946304654
:10151000FEF7F0FF11200095CDE9010402200390B1
:1015200069463046FEF7F6FE06B070BD0010024078
:10153000000C01400D4810B50B4901600C49416099
:1015400000214FF480428160C0E903124161816152
:10155000C1610162FEF7DAFF002803D0BDE8104048
:10156000FEF7C3BE10BD0000005800403000002050
:10157000A0860100FEE7FEE770B5002400212046AA
:1015800000F0ADF80025002000F065F96D1CEDB20B
:10159000802DF8D3641CE4B2082CEFD370BD10B5D5
:1015A000FFF788FF012000F035F9BDE81040012069
:1015B00000F038B970B500240546802626FA04F0FC
:1015C000284000D0012000F02DF9012000F022F980
:1015D000002000F01FF9641CE4B2082CEED30120B7
:1015E00000F018F9BDE87040002000F013B910B504
:1015F000012000F017F9012000F00CF9002000F0A4
:1016000011F9BDE81040002000F004B910B5002029
:1016100000F008F9012000F0FDF8BDE810400120BD
:1016200000F000B910B500204FF47A720021491C77
:101630009142FCD3401C9042F8D3FFF7B0FFAE209C
:1016400000F0F8F8D52000F0F5F8802000F0F2F86E
:10165000A82000F0EFF83F2000F0ECF8D32000F0D5
:10166000E9F8002000F0E6F8402000F0E3F8A120BF
:1016700000F0E0F8C82000F0DDF8DA2000F0DAF839
:10168000122000F0D7F8812000F0D4F8CF2000F02D
:10169000D1F8D92000F0CEF8F12000F0CBF8DB2013
:1016A00000F0C8F8302000F0C5F8A42000F0C2F81F
:1016B000A62000F0BFF88D2000F0BCF8142000F048
:1016C000B9F8AF2000F0B6F8BDE81040FFF754BFFE
:1016D0000246012000E05043491EFCD2704710B57D
:1016E0000C4640F0B00000F0A5F8102040EA1410BD
:1016F00000F0A0F804F00F00BDE8104000F09AB828
:101700002DE9F0410746CE004000083E801E1546F8
:101710004FF0FF38F1B2C0B2FFF7E1FF11480024EB
:1017200000EB05152819A0F5805090F8000E00F088
:1017300092F8641CE4B2082CF4D308EB4700F1B231
:10174000C0B2FFF7CCFF00242819A0F5805090F814
:10175000080E00F080F8641CE4B2082CF4D3BDE855
:10176000F0810000D42800082DE9F0411D461746FD
:101770000E468046002415E0291B1020491EFFF765
:10178000A7FFB7FBF0F000F00F0206EB0400C1B2B8
:101790000A2A404601D2303200E03732FFF7B0FF6C
:1017A000641CE4B2AC42E7D3BDE8F0812DE9F04718
:1017B00000241D461646884681460A2713E0291B49
:1017C0000A20491EFFF784FFB6FBF0F0B0FBF7F1EB
:1017D00007FB110208EB0400C1B248463032FFF7A4
:1017E0008FFF641CE4B2AC42E9D3BDE8F0872DE979
:1017F000F04115460E460746002406E03019C1B2F6
:101800003846FFF77DFF641CE4B22A5D002AF5D15B
:10181000BDE8F08102464FF400710148FEF76ABE50
:10182000000C014002464FF480710148FEF762BE91
:10183000000C014010B50446FFF7D9FE7820FFF7F1
:10184000B9FE0020FFF7B6FE2046FFF7B3FEBDE865
:101850001040FFF7DBBE10B50446FFF7C8FE782046
:10186000FFF7A8FE4020FFF7A5FE2046FFF7A2FEE7
:10187000BDE81040FFF7CABE7047000070B586B0E3
:1018800014460D4606466422062103A88DE807008B
:10189000012300220D210748FEF7FCFEBDF80C00D5
:1018A0003080BDF80E002880BDF81000208006B002
:1018B00070BD00003000002003B583B06423012216
:1018C00004A98DE80E00134602460D210248FFF7D9
:1018D0000FF805B000BD0000300000207047FFF792
:1018E000CFB830B58FB028216846FEF76DFC1421C3
:1018F0000AA8FEF769FC01210804CDE900100024C4
:10190000029402250491CDE907504FF4E0100990AC
:101910006846FFF70BFA08B172B6FEE70F20CDE973
:101920000A054FF48060CDE90C4002210AA80E940C
:10193000FFF730F9002801D072B6FEE70FB030BDD6
:101940007047FEE7490050EAC12018BF04204A0D45
:1019500018BF40F0010040F2FF72B2EB515F08BFC8
:1019600040F00200012808BF052070470907090E52
:10197000002804DB00F1E02080F80014704700F03C
:101980000F0000F1E02080F8141D70472DE9F041B0
:101990004F1E00EBC7010446D1E9000115461E4663
:1019A00037F006020DD02A46334600F027FD7F1E91
:1019B00004EBC703D3E9002300F0D4FA37F00602A2
:1019C000F1D1022F25D0042F13D0062F18BFBDE868
:1019D000F0812A46334600F011FDD4E90A2300F0D5
:1019E000C1FA2A46334600F009FDD4E9082300F085
:1019F000B9FA2A46334600F001FDD4E9062300F087
:101A0000B1FA2A46334600F0F9FCD4E9042300F089
:101A1000A9FA2A46334600F0F1FCD4E9022300F08B
:101A2000A1FA2A46334600F0E9FCD4E90023BDE8D8
:101A3000F04100F097BA012200F006BF00F092BA20
:101A4000024A0020110700F0FFBE000001FDFFFF69
:101A50002DE9F84F04460D4621F0004000917349EE
:101A6000814211DC7249884201DC06D12CB120464A
:101A70002946BDE8F84FFFF7DEBF6E48002DCCBF0A
:101A80006D496E49BDE8F88F6D49814211DD6D49A0
:101A90008142D8BF4FF0FF366DDD20462946FFF763
:101AA00051FF042808BFFFF7CBFF20462946BDE8B9
:101AB000F88F6549654F25F00045814233DD644963
:101AC000814219DD002632464FF0804320462946E8
:101AD00000F048FA80468A4601222046294600F056
:101AE000B3FE00223B4600F093FD4246534600F011
:101AF000E9FA04460D463EE001260022BA463B467E
:101B00002046294600F02EFA80460F460022534612
:101B10002046294600F07CFD42463B4600F0D2FAC2
:101B200004460D4627E04B4981421BDDDFF828A122
:101B30000226002253462046294600F05FFC002280
:101B40003B4600F00FFA80460F46002253462046DF
:101B5000294600F05DFD42463B4600F0B3FA0446DC
:101B60000D4608E0032622462B4600203B4900F0A4
:101B7000A9FA04460D4622462B461046194600F0A7
:101B80003DFC8B46824602460B4600F037FC07467A
:101B90000246334888460B4606217844FFF7F6FE96
:101BA00052465B4600F02AFC82462E488B463A4657
:101BB000434605217844FFF7E9FE3A46434600F0E4
:101BC0001DFC02460B46002E504659460CDA00F02A
:101BD000C9F922462B4600F011FC01B022462B46E3
:101BE000BDE8F04F00F008BD00F0BCF922462B46DE
:101BF00000F004FC1C4A7A4402EBC603D3E900233C
:101C000000F006FD22462B4600F002FD174A7A44FA
:101C100002EBC603D3E9002300F0EEFC009A002A91
:101C2000B8BF81F00041BDE8F88F0000000010440B
:101C30000000F07F182D4454FB21F93FFB21F9BF30
:101C40000000DC3F0000203E0000F33F0000F03FBA
:101C50000000E63F008003400000F83F0000F0BFB6
:101C6000BA1300007813000016130000DE12000003
:101C70002DE9F04D9446CCF1000423F000464CEAE7
:101C80000404524F46EAD4749A46884621F0004232
:101C9000BC4206D8454240EA050442EAD474BC423C
:101CA00004D9BDE8F04D6246FFF7C8BEAAF1405521
:101CB000A5F17F6555EA0C040BD0022404EAAA744E
:101CC000434DDFF810E144EAD87452EA000B04D027
:101CD0000CE0BDE8F04DFFF7BBBE002C14BF012C9B
:101CE000BDE8F08D022C30D0032C32D056EA0C0B1C
:101CF0000AD0BE4220D1BA4209D126F0804622F055
:101D000080423346114617E000291ADB25E0DFF850
:101D1000C8B0FB44002C04BFDBE90001BDE8F08D36
:101D2000012C02BFDBE9000181F00041BDE8F08D2C
:101D3000022C0AD0032C0CD0BA4212D1B8F1000FF9
:101D40000BDA23482549BDE8F08D28462449BDE833
:101D5000F08D28467146BDE8F08D1D482149BDE84B
:101D6000F08D921B12153C2AC4BF19481D490EDC88
:101D7000BAF1000FBEBF12F13C0F0020014606DB96
:101D8000624600F09FF921F00041FFF761FE002C50
:101D900008BFBDE8F08D012C04BF81F00041BDE813
:101DA000F08D114A114B022C07D000F031FC2A466D
:101DB000BDE8F04D0A4B00F02BBC00F029FC2A4690
:101DC000BDE8F04D064B00F017BC00000000F07FAE
:101DD000182D4454FB2109C072120000FB21F9BFE9
:101DE000FB210940FB21F93F075C143326A6A13CE7
:101DF0000EB5FEF74DFEFFF774FDFFF75BFBFFF737
:101E000099FB0020464CADF80000ADF80400ADF899
:101E10000800C4E90200C4E90400C4E90600FFF7B1
:101E200001FC00F089F8FFF7A7FBDFF8F880DFF886
:101E3000F890DFF8F8A0DFF8F8B04FF4004602AAF7
:101E400001A96846FFF71AFDBDF90000B04202DBA8
:101E5000401CADF80000BDF90400B04202DB401C9C
:101E6000ADF80400BDF90800B04202DB401CADF83B
:101E70000800BDF9000000F0AAFA05460F46BDF9BA
:101E8000040000F0A4FA2A463B46FFF7F1FE424662
:101E90004B4600F0B3FA0022534600F063F80022EC
:101EA0005B4600F0ABFAC4E902010523BDF900204E
:101EB00001210220FFF77AFC0523BDF9042001214E
:101EC0000320FFF773FC0523BDF90820012104203E
:101ED000FFF76CFCD4E9020100F04CFA80B2FEF787
:101EE000D7F90123E27819461846FFF73DFC012394
:101EF000A27802211846FFF737FC012362780321FC
:101F00001846FFF731FC0123227805211846FFF718
:101F10002BFC08A204210120FFF769FC8FE70000D9
:101F200000000020775AF01ADCA54C400080664083
:101F3000000024402E00000010B501210B20FFF707
:101F4000BBFC09210846FFF7B7FC40212020FFF722
:101F5000B3FC01212120FFF7AFFCBDE81040642055
:101F6000FEF7C6B910B591EA030F48BF83F00043EE
:101F700000F15683841A71EB030C05D2121943EB5E
:101F80000C03001B61EB0C01DFF824E14FEA115454
:101F9000A4EB135C1EEA430F18BF9EEA445F73D0A4
:101FA00023EA0E03DCF1200E21EA045143F48013EE
:101FB00032D322FA0CFE10EB0E0023FA0CFE41EB9A
:101FC0000E01CCF1200E03FA0EFE10EB0E0051F1C3
:101FD0000001B1F5801FCCF1200E32D201EB04518B
:101FE00012FA0EF2BDE8104058BF7047401C38BFCF
:101FF0005FEA420218BF7047002814BF20F00100BA
:1020000041F100014FEA410313F5001F38BF70474B
:10201000A1F1C04100F0EABA012A43EB0302ACF19E
:10202000200CDCF11F0E32BF4FF0000E23FA0CF330
:1020300010EB030041EB0451B4EB115FD0D0A1EBE6
:10204000045101F5801149085FEA300001EB0451A9
:102050000ED350F1000038BF12FA0EFE08D1BDE8D1
:102060001040C9E7401C38BF5FEA4202CAD1C3E74B
:10207000BDE810404FEA410313F5001F38BF704719
:10208000A1F1C04100F0B2BA9EEA445F08D011EA63
:102090005E0FBDE8104004BF01F000410020704712
:1020A000BDE8104070B500F053FA00BF64FBBE3EBF
:1020B0000000E0FF02494FF0000000F093BB00BFBA
:1020C0000000F87F2DE9C04130B4DFF8A0C23CEA3F
:1020D000111418BF3CEA131400F0EC8081EA0305E8
:1020E0001CEA111444EAD57418BF1CEA131500F059
:1020F000C780A4EB05044FF0004545EAC12145EA3D
:10210000C32341EA505143EA525304F17F74994288
:1021100004F500344FEAC0204FEAC22208BF9042C3
:1021200000F09C804FEA13650FF24016765D4FEA8F
:10213000134506FB05F7C7F1807706FB07F74FEA63
:10214000D737A7FB03687642C8F58038A7FB06CED1
:1021500038BFA8F1010807FB08E64FF0000EA6FB08
:10216000028CE6FB03CEDCF1000CCEF1004E38BF52
:10217000AEF1010EA6FB0C584FF000074FF0000522
:10218000E6FB0E87A1FB08C6A0FB07CE16EB0E06EA
:1021900045F10005E1FB076515F1E04E7EBFA4F5B2
:1021A00080345FEA46066D4116F1800745F100056F
:1021B0004FEA17274FEA066647EA0567A6F1DE46AB
:1021C000B6F1805F4FEA15251FD9384624F0010C7F
:1021D00005EBC471BCF1FE6F01EB0C1102D8F0BC31
:1021E000BDE8008124425CBF01F5801E9EEAC47FE9
:1021F00002D4F0BCBDE80081244238D4F0BCA1F187
:10220000C041BDE8004100F0F1B94FEAD22242EAF4
:1022100043524FEAD323A7FB02864FEAD02040EA7D
:10222000415007FB03661EEA0E0F4FEAD12105FB62
:10223000026658BFA6EB0056B6EB00564FEA520EA8
:102240004EEAC37E18EB0E0E56EB530EBDD518EBBF
:1022500002085E417F1C55F10005B6E74FF480157A
:102260004FF000074FF000064FF00008ADE7F0BC5C
:102270004FF0000001F1C04101F00041BDE80081D4
:1022800011EA0C1F0CEA131500D00CE013EA0C1F26
:1022900000F025804FF00000F0BC81EA030101F05E
:1022A0000041BDE80081F0BCBDE8004181EA0301C6
:1022B00000F09CB9F0BCBDE8004170B500F048F9F1
:1022C000097EFC3E00F007B881EA03014FF00000F0
:1022D00001F00041704781EA030100F087B9F0BCCA
:1022E000BDE800414FF0000021497047FFFDFBF9B8
:1022F000F7F5F4F2F0EEEDEBE9E8E6E4E3E1E0DE39
:10230000DDDBDAD8D7D5D4D3D1D0CFCDCCCBCAC8AA
:10231000C7C6C5C4C2C1C0BFBEBDBCBBBAB9B8B7D1
:10232000B6B5B4B3B2B1B0AFAEADACABAAA9A8A8C4
:10233000A7A6A5A4A3A3A2A1A09F9F9E9D9C9C9B92
:102340009A9999989797969595949393929191903D
:102350008F8F8E8E8D8C8C8B8B8A898988888787CE
:102360008685858484838382828181800000FF0743
:102370000000F87F4FEA1153A3F58063D3F11E03E9
:10238000A8BFD3F1200C08DB4FF0004242EAC12283
:1023900052EA505232FA03F0704709420BD4102B24
:1023A000C4BF0020704703F5787CBCF1FF3F05D027
:1023B0004FF0FF3070474FF00000704770B500F0ED
:1023C000C7F800BF4992248000207047F0E710F062
:1023D000004248BF4042B0FA80F310FA03F10AD03D
:1023E000C3F11D0303F580634FEA415002EB035232
:1023F00002EBD12170474FF000007047DFF848C171
:1024000070B51CEA111E1EBF1CEA13159EEA0C0FC4
:1024100095EA0C0F00F06F8081EA030423EA4C1365
:102420004EEAD47E21EA4C1141F4801143F480132A
:10243000AE44A1FB024CA0FB0365AEF17F7E3619D2
:1024400055EB0C05A1FB034C4CF10003A0FB021C57
:1024500016EB0C06654153F10003094218BF46F024
:10246000010613F4007F0BD14FEA03314FEA053028
:10247000340341EA155140EA16506FF003020AE0B6
:102480004FEAC3214FEAC520F40241EA555140EA20
:1024900056506FF0020202EB2E4201EB025585EA24
:1024A000CE710AD05FEA440C18BF24F0004450F10A
:1024B000000041F1000120EAD47040F2FE7C624548
:1024C00000D270BDA84214BF4FF080444FF040448A
:1024D000002E08BF0024BEF1806FA8BFA1F1C0414B
:1024E000BDE8704080F282804FF0000001F1C041F1
:1024F00001F0004170479EEA0C0F0CEA131518BF5B
:1025000095EA0C0F06D04FF0000081EA030E0EF0A2
:10251000004170BD00F01CF88900013E00F007B8D2
:1025200000F009B84FEA430C5FEA5C5C08D081EA2E
:10253000030100F05BB84FEA410C5FEA5C5CF6D146
:102540004FF00000014970470000FF070000F87FCE
:102550000EF1020E2EF0030E5EF8046B364205D427
:10256000012A43EB030515F5001F12D8012841EBA2
:10257000010C1CF5001F0CD80ED14FEAD17C15F5CB
:10258000001F0CEB4C0C0CF1020C08BF4CEBD37C85
:1025900004E04FF0080C01E04FEAD37C0CEB4C0553
:1025A00026FA05F606F00706B6F1040C06D20EEB85
:1025B000860CBDE870404CF0010C6047DFE80CF081
:1025C000090B02024FF000414FF00000A1F500217D
:1025D00070BD19461046012851EB010418BFD4F50F
:1025E000001484BF002001F0004170BD0808A0F570
:1025F00000114FEA3101704791EA030F10B581F0E5
:1026000000413FF5B7AC83F0004300F009B800008B
:1026100010B591EA030F48BF83F000433FF5AAAC21
:10262000841A71EB030C07D212198CF0004C43EBA7
:102630000C03001B61EB0C01DFF8A4E14FEA11541D
:10264000A4EB135C1EEA430F18BF9EEA445F00F040
:10265000B08023EA6E03524221EA0451C3EB6E03B9
:1026600038BF5B1EDCF1200E25D322FA0CFE10EBE6
:102670000E0043FA0CFE41EB0E01CCF1200E03FAE2
:102680000EFE10EB0E0051F10001CCF1200E29D40A
:1026900012FA0EF201EB0451BDE8104058BF70472A
:1026A000401C1CBFB2F1004F704700280CBF491CF2
:1026B00020F00100704712EB020E43EB030218BF3B
:1026C0004FF0010E4EEA4202ACF1200CDCF11E0E7E
:1026D00054D943FA0CFE10EB0E0051F1FF31CCF14E
:1026E0001E0ED5D50EF1010E12FA0EFE404141EB41
:1026F000010101EB445C5FEA5C5C10D910EBDE7019
:1027000001EB045138BFBEF1004FBDE8104018BFC7
:10271000704700280CBF491C20F00100704730D2E0
:102720004FEAD42C11F5001124F400641BD0B1FA47
:1027300081F20B3AA41AA41ED2F12003914030FA80
:1027400003F31943904001EBCC71002C01EB0451D1
:10275000BDE81040A8BF704701F1C0414FF0000034
:1027600001F000417047B0FA80F310FA03F100D194
:1027700010BDE41A173C4805C90AE4E701EB04510F
:1027800010BD491001EB0451BDE810404FEA300084
:1027900002E04FF0000170474A0008BF0042F8D045
:1027A000B2F5001F28BF704701F000414FF0000054
:1027B00070479EEA445F07D011EA5E0FBDE8104003
:1027C00004BF002100207047BDE8104070B5FFF73E
:1027D000BFFE00BF40DFF63E83F000411046704769
:1027E0000000E0FF0CF00F03092B08BF082000F0E9
:1027F00059800A2B0BD0082B18BF704708BF1CF05C
:10280000400F0AD04FF000004FF0000170471CF05D
:10281000400F18BF4FF0004070471CF0100F08D059
:1028200020F0704300F07F4242EAD3014FEA437048
:10283000704700F0604021F07F4242EA000201F060
:102840007F4040EA727070474FF0FF0C4CF4E06C30
:102850001CEA11531CBF9CEA030C9445C2BFDA4228
:1028600001EB02517047002B0DD0BCF1000F0FD0CF
:10287000002A01F00041A4BF41F0E04141F07F6136
:102880004FF00000704701F000414FF0000070472A
:1028900050EA01334FF09B0C18BF4CF0806C7FF472
:1028A00009AC70471CF4801F11D01CF4E02F03D03A
:1028B0006FEACC31490070474FF04050EFF300828F
:1028C00022F0704242EA000282F3008870474FF023
:1028D0000000704700000000000000000000000041
:1028E00000000000000000F80000000000000033BD
:1028F0003000000000100C06100C06000000000064
:102900000000000040C07840C0784000043F04044C
:102910003F040400007088FC08300000001820FF0D
:10292000211E0000F008F000E018000000211C0348
:102930001E211E0000F00888700000001E212324C4
:102940001927211010160E000000000000000000E2
:1029500000000000000000E0180402000000000772
:102960001820400000020418E00000000040201879
:1029700007000000404080F0804040000202010F4C
:1029800001020200000000F0000000000101011F30
:1029900001010100000000000000000080B0700094
:1029A0000000000000000000000000000001010124
:1029B00001010101000000000000000000303000B3
:1029C000000000000000000080601804006018068D
:1029D0000100000000E010080810E000000F1020C7
:1029E00020100F00001010F8000000000020203F11
:1029F000202000000070080808887000003028249B
:102A0000222130000030088888483000001820203B
:102A100020110E000000C02010F800000007042460
:102A2000243F240000F808888808080000192120A5
:102A300020110E0000E0108888180000000F1120FF
:102A400020110E0000380808C83808000000003FB8
:102A5000000000000070880808887000001C222117
:102A600021221C0000E010080810E00000003122C4
:102A700022110F00000000C0C00000000000003064
:102A800030000000000000800000000000008060B6
:102A90000000000000008040201008000001020437
:102AA000081020004040404040404000040404041E
:102AB00004040400000810204080000000201008DA
:102AC00004020100007048080808F000000000300F
:102AD00036010000C030C828E810E000071827249D
:102AE00023140B000000C038E0000000203C23024B
:102AF0000227382008F8888888700000203F2020AE
:102B000020110E00C03008080808380007182020DF
:102B10002010080008F808080810E000203F2020D6
:102B200020100F0008F88888E8081000203F2020B7
:102B30002320180008F88888E8081000203F2000AB
:102B400003000000C03008080838000007182020E3
:102B5000221E020008F808000008F808203F2101A2
:102B600001213F20000808F8080800000020203F4D
:102B70002020000000000808F8080800C0808080BD
:102B80007F00000008F888C028180800203F2001B6
:102B90002638200008F8080000000000203F202010
:102BA0002020300008F8F800F8F80800203F003F27
:102BB000003F200008F830C00008F808203F20003F
:102BC00007183F00E01008080810E0000F10202050
:102BD00020100F0008F808080808F000203F210125
:102BE00001010000E01008080810E0000F1824247C
:102BF00038504F0008F8888888887000203F2000EF
:102C0000030C3020007088080808380000382021A4
:102C100021221C00180808F8080818000000203FAE
:102C20002000000008F808000008F808001F202015
:102C300020201F000878880000C8380800000738E6
:102C40000E010000F80800F80008F800033C070037
:102C5000073C0300081868808068180820302C039F
:102C6000032C30200838C800C83808000000203F76
:102C70002000000010080808C83808002038262165
:102C800020201800000000FE020202000000007F69
:102C900040404000000C30C0000000000000000177
:102CA0000638C00000020202FE0000000040404062
:102CB0007F00000000000402020204000000000087
:102CC0000000000000000000000000008080808004
:102CD00080808080000202040000000000000000EC
:102CE0000000000000008080808000000019242285
:102CF00022223F2008F8008080000000003F1120C1
:102D000020110E000000008080800000000E1120C5
:102D100020201100000000808088F800000E1120A3
:102D200020103F200000808080800000001F2222B1
:102D300022221300008080F0888888180020203F1D
:102D4000202000000000808080808000006B949430
:102D50009493600008F8008080800000203F2100EC
:102D600000203F2000809898000000000020203FB5
:102D700020200000000000809898000000C08080A3
:102D8000807F000008F8000080808000203F24023F
:102D90002D302000000808F8000000000020203F2F
:102DA000202000008080808080808000203F2000E4
:102DB0003F20003F8080008080800000203F210075
:102DC00000203F200000808080800000001F202025
:102DD00020201F00808000808000000080FFA12054
:102DE00020110E000000008080808000000E112065
:102DF00020A0FF80808080008080800020203F21F4
:102E000020000100000080808080800000332424A6
:102E100024241900008080E0808000000000001F52
:102E2000202000008080000000808000001F202003
:102E300020103F20808080000080808000010E30C4
:102E40000806010080800080008080800F300C0325
:102E50000C300F0000808000808080000020312E28
:102E60000E312000808080000080808080818E7004
:102E70001806010000808080808080000021302CB6
:102E80002221300000000000807C020200000000CF
:102E9000003F404000000000FF0000000000000074
:102EA000FF0000000002027C800000000040403F64
:102EB00000000000000601010202040400000000FE
:102EC00000000000010202030405060708090A0BBE
:102ED0000C0D0E0F10100000000000000000010299
:102EE00003040607080900000000010203040000B3
:102EF0004FBB610567ACDD3F182D4454FB21E93F12
:102F00009BF681D20B73EF3F182D4454FB21F93F00
:102F1000E2652F227F2B7A3C075C143326A6813C86
:102F2000BDCBF07A8807703C075C143326A6913C31
:102F3000C4EB98999999C9BF711623FEC671BCBF9D
:102F40006D9A74AFF2B0B3BF9AFDDE522DDEADBF05
:102F50002F6C6A2C44B4A2BF0D5555555555D53F1D
:102F6000FF8300922449C23F6E204CC5CD45B73F38
:102F7000513DD0A0660DB13FEB0D76244B7BA93FB0
:102F800011DA22E33AAD903F00000000000000009B
:102F9000B02F0008000000203000000028010008C9
:102FA000E02F000830000020B806000044010008AF
:102FB0000000000000000000000000000000000011
:102FC0000000000000000000000000000000000001
:102FD00001000000100000000000000000127A0054
:04000005080000ED02
:00000001FF
