:020000040800F2
:100000008006002089010008230B0008690A000807
:10001000210B00088F020008F30E0008000000000A
:100020000000000000000000000000008D0E00082D
:100030009102000800000000E50D00088F0E000886
:10004000A3010008A3010008A3010008A301000800
:10005000A3010008A3010008A3010008A3010008F0
:10006000A3010008A3010008A3010008A3010008E0
:10007000A3010008A3010008A3010008A3010008D0
:10008000A3010008A3010008A3010008A3010008C0
:10009000A3010008A3010008A3010008A3010008B0
:1000A000A3010008A3010008A3010008A3010008A0
:1000B000A3010008A3010008A3010008A301000890
:1000C000A3010008A3010008A3010008A301000880
:1000D000A3010008A3010008A3010008A301000870
:1000E000A3010008A3010008A301000800F002F822
:1000F00000F03AF80AA090E8000C82448344AAF188
:100100000107DA4501D100F02FF8AFF2090EBAE885
:100110000F0013F0010F18BFFB1A43F0010318473B
:100120003816000058160000103A24BF78C878C16D
:10013000FAD8520724BF30C830C144BF04680C60ED
:10014000704700000023002400250026103A28BF35
:1001500078C1FBD8520728BF30C148BF0B60704739
:100160001FB51FBD10B510BD00F058F81146FFF7C0
:10017000F7FF00F06FFF00F076F803B4FFF7F2FF2F
:1001800003BC00F07DF8000009488047094800479B
:10019000FEE7FEE7FEE7FEE7FEE7FEE7FEE7FEE737
:1001A000FEE7FEE704480549054A064B7047000094
:1001B000F10E0008ED0000088000002080060020FD
:1001C00080020020800200204FF0000200B513469C
:1001D00094469646203922BFA0E80C50A0E80C5067
:1001E000B1F12001BFF4F7AF090728BFA0E80C5018
:1001F00048BF0CC05DF804EB890028BF40F8042B11
:1002000008BF704748BF20F8022B11F0804F18BF7D
:1002100000F8012B7047704770477047754600F033
:100220002BF8AE4605006946534620F00700854688
:1002300018B020B5FFF7B6FFBDE820404FF000062C
:100240004FF000074FF000084FF0000B21F00701BE
:10025000AC46ACE8C009ACE8C009ACE8C009ACE801
:10026000C0098D46704710B50446AFF300802046A4
:10027000BDE81040FFF781BF004870471C00002018
:1002800001491820ABBEFEE7260002007047FEE7DA
:10029000704700002DE9F84FDFF8B8910024A9F16C
:1002A000040B23460F2709F1040AABF1040EC9E041
:1002B0000125A5402A40AA427DD1674ED1F804C04D
:1002C000ACEB0608B44532D014DCBCF1030F3AD0D5
:1002D00009DCBCF1000F2AD0BCF1010F1CD0BCF12D
:1002E000020F31D11DE0BCF1110F17D0BCF1120F7C
:1002F0002AD119E0B8F5881F19D006DCB8F5803F7F
:1003000015D0B8F5801F1FD111E0B8F5001F0ED031
:10031000B8F5041F18D10AE0CB6815E0CB681B1DA7
:1003200012E0CB6808330FE0CB680C330CE08B682D
:100330002BB1012B4FF0080303D0456104E00423E7
:1003400002E0056100E00023FF2A01D8064601E033
:1003500000F104064FEA840501D9A5F12005D6F87D
:10036000008007FA05FC28EA0C0803FA05F548EABC
:100370000508C6F800804D68ED0062D5374DAE69BE
:1003800046F00106AE61AD6924F0030605F00105F3
:100390000095334D06EB050CDCF80850A607360F28
:1003A00007FA06F825EA0805DFF8B880404503D1CA
:1003B0004FF0000817E044E0DFF8AC80404502D180
:1003C0004FF001080FE0DFF8A480404502D14FF064
:1003D000020808E0DFF89880404502D14FF003089A
:1003E00001E04FF0040808FA06F848EA0508CCF8DE
:1003F00008804D68D9F80060ED024D4601D51643DE
:1004000000E096432E604D68DAF80060AD02554674
:1004100001D5164300E096432E604D68DBF800607E
:10042000AD035D4601D5164300E096432E604D684E
:10043000DEF80060ED03754601D5164300E09643F3
:100440002E60641C0D682A46E5407FF431AFBDE89C
:10045000F88F000008040140000011100010024055
:100460000000014000080140000C01400010014064
:10047000001401408068084000D0012070470AB194
:10048000016170470904FBE701488068704700007C
:100490000C00002002488168027811448160704796
:1004A0000C000020074810B5016841F01001016000
:1004B000032000F067F80F2000F006F800F024F8A1
:1004C000002010BD0020024070B50D4D04464FF4D1
:1004D0007A712878B1FBF0F00A490968B1FBF0F0B5
:1004E00000F0AEFA48B9102C07D200222146501E67
:1004F00000F028F800206C6070BD012070BD000085
:100500000C000020180000200C4808B5816941F05B
:1005100001018161816901F001010091C16941F02E
:100520008051C161C06900F080500090044841686A
:1005300021F0E06141F00071416008BD001002400F
:1005400000000140F0B40E4B1B680C46C3F30223BD
:10055000C3F10705042D00D90425191D072901D26F
:10056000002300E0DB1E012606FA05F1491E2140AA
:1005700099409E40761E16403143F0BC00F05ABDB3
:100580000CED00E0064900F0070208684FF6FF0393
:10059000184040EA0220034A1043086070470000F8
:1005A0000CED00E00000FA052DE9F0470F460500CC
:1005B00061D0434E306800F00700B84209D230687D
:1005C00020F0070038433060306800F00700B84280
:1005D00051D128683B4C810712D5400703D560688C
:1005E00040F4E06060602878000703D5606840F45C
:1005F000605060606068A96820F0F00008436060A7
:100600002878C00728D06868012810D021680228FF
:1006100010D0890700292EDA616821F00301014317
:100620006160FFF731FF804641F288390DE02168B3
:100630008903EFE78901EDE7FFF726FFA0EB08014B
:10064000494502D90320BDE8F0876068696800F079
:100650000C00B0EB810FEFD1306800F00700B8421A
:100660000BD9306820F0070038433060306800F064
:100670000700B84201D00120E5E72878400705D5FA
:100680006068E96820F4E06008436060287800074B
:1006900006D56068296920F4605040EAC1006060B6
:1006A00000F018F86168084AC1F30311515CC840B2
:1006B0000649086006480068FFF706FF0020C2E709
:1006C00000200240001002404617000818000020D9
:1006D000100000200E4A51680E4801F00C03042B54
:1006E00011D0082B0FD10C48C1F38343C903C05C60
:1006F0000AD55168084AC1F34041921E515C054A2F
:100700005043B0FBF1F07047044948437047000084
:100710000010024000127A003617000800093D0060
:100720002DE9F84F040070D02078C04DC00749D0A3
:100730006868C0F38100012807D06868C0F38100B1
:10074000022809D16868C00306D52868800339D516
:1007500060680028E7D035E06068B0F5803F0BD0D6
:1007600010B1B0F5A02F11D0286820F48030286097
:10077000286820F4802002E0286840F48030286057
:10078000606890B1FFF780FE06460AE0286840F4F2
:1007900080202860F0E700BFFFF776FE801B64280A
:1007A00073D828688003F7D50CE0FFF76DFE064686
:1007B00005E000BFFFF768FE801B6428F0D82868BA
:1007C0008003F7D420789A4E80074FF001094FF04C
:1007D000000839D5686810F00C0F07D06868C0F3BE
:1007E0008100022809D16868C00306D42868800700
:1007F00014D52069012808D110E02069B0B1C6F8ED
:100800000090FFF741FE074605E00AE1FFF73CFED6
:10081000C01B0228C4D828688007F7D528686169FA
:1008200020F0F80040EAC10028600DE0C6F8008022
:10083000FFF72AFE074604E0FFF726FEC01B02284A
:1008400023D828688007F7D4207800072CD579486A
:10085000A169D9B1C0F80090FFF716FE074604E081
:10086000FFF712FEC01B02280FD8686A8007F7D571
:1008700071484FF4FA510068B0FBF1F0009000BFEE
:100880000098411E0091FAD20EE080E0C0F800808E
:10089000FFF7FAFD074604E0FFF7F6FDC01B02284C
:1008A00075D8686A8007F7D42078400760D5E86972
:1008B0000027C00008D4E86940F08050E861E8698A
:1008C000012700F0805000905C480168C90513D4EE
:1008D0000168834641F480710160FFF7D5FD8246CF
:1008E00006E000BFFFF7D0FDA0EB0A0064284ED859
:1008F000DBF80000C005F5D5E06801280AD008B192
:10090000052813D0286A20F001002862286A20F008
:10091000040002E0286A40F001002862E06841F229
:10092000883B98B1FFF7B0FD82460BE0286A40F0A3
:1009300004002862EEE700BFFFF7A6FDA0EB0A0166
:1009400059455AD8286A8007F6D50CE0FFF79CFD78
:10095000824605E0FFF798FDA0EB0A0159454CD807
:10096000286A8007F6D41FB1E86920F08050E8615A
:10097000E06988B36968C1F38101022944D0022883
:10098000C6F8608004D0FFF77FFD044638E034E00D
:10099000FFF77AFD074604E0FFF776FDC01B02284B
:1009A0002BD828688001F7D4206AB0F5803F05D1A4
:1009B0006868A16820F4003008436860D4E9080141
:1009C0000843696821F4741108436860C6F86090B0
:1009D000FFF75AFD044606E025E000BFFFF754FD8F
:1009E000001B022809D828688001F7D51BE000BF4A
:1009F000FFF74AFD001B022802D90320BDE8F88F4B
:100A000028688001F4D40EE00128F7D06868226AD3
:100A100000F48031914204D1616A00F47010884280
:100A200001D00120EAE70020E8E7000000100240C2
:100A30000000424280044242180000200070004042
:100A400010B5401EB0F1807F01D3012010BD4FF0E2
:100A5000E02460610F21601700F0ECFA0020A06133
:100A600007202061002010BDFEE7000070B586B0B1
:100A7000002429480094019402940394816941F070
:100A800010018161816901F010010491816941F0D7
:100A900020018161816901F020010491816941F0A7
:100AA00008018161816901F008010491816941F0C7
:100AB000040181618069194E00F004000122049054
:100AC00011033046FFF7DBFC00224FF42341304690
:100AD000FFF7D5FC4FF43040009001AA0120022519
:100AE00082E8310069463046FFF7D4FB6803CDE960
:100AF0000004694630460294FFF7CCFB4FF4407087
:100B0000009001AA112082E8310069463046FFF7C3
:100B1000C1FB06B070BD000000100240000C014097
:100B2000FEE7FEE770B500240021204600F0ADF896
:100B30000025002000F045F96D1CEDB2802DF8D3A2
:100B4000641CE4B2082CEFD370BD10B5FFF78EFF24
:100B5000012000F015F9BDE81040012000F018B99F
:100B600070B500240546802626FA04F0284000D0FF
:100B7000012000F00DF9012000F002F9002000F042
:100B8000FFF8641CE4B2082CEED3012000F0F8F862
:100B9000BDE87040002000F0F3B810B5012000F06F
:100BA000F7F8012000F0ECF8002000F0F1F8BDE8C3
:100BB0001040002000F0E4B810B5002000F0E8F884
:100BC000012000F0DDF8BDE81040012000F0E0B8A1
:100BD00010B500204FF47A720021491C9142FCD3D9
:100BE000401C9042F8D3FFF7B0FFAE2000F0D8F8D9
:100BF000D52000F0D5F8802000F0D2F8A82000F031
:100C0000CFF83F2000F0CCF8D32000F0C9F8002046
:100C100000F0C6F8402000F0C3F8A12000F0C0F8B2
:100C2000C82000F0BDF8DA2000F0BAF8122000F079
:100C3000B7F8812000F0B4F8CF2000F0B1F8D92047
:100C400000F0AEF8F12000F0ABF8DB2000F0A8F8DF
:100C5000302000F0A5F8A42000F0A2F8A62000F0B3
:100C60009FF88D2000F09CF8142000F099F8AF2038
:100C700000F096F8BDE81040FFF754BF024601208F
:100C800000E05043491EFCD2704710B50C4640F0BE
:100C9000B00000F085F8102040EA141000F080F851
:100CA00004F00F00BDE8104000F07AB82DE9F041E3
:100CB0000746CE004000083E801E15464FF0FF3824
:100CC000F1B2C0B2FFF7E1FF1148002400EB0515B7
:100CD0002819A0F5805090F8000E00F072F8641CFE
:100CE000E4B2082CF4D308EB4700F1B2C0B2FFF72E
:100CF000CCFF00242819A0F5805090F8080E00F0D1
:100D000060F8641CE4B2082CF4D3BDE8F081000064
:100D1000441100082DE9F0411D4617460E46804655
:100D2000002415E0291B1020491EFFF7A7FFB7FB81
:100D3000F0F000F00F0206EB0400C1B20A2A4046B0
:100D400001D2303200E03732FFF7B0FF641CE4B26A
:100D5000AC42E7D3BDE8F0812DE9F04115460E46DF
:100D60000746002406E03019C1B23846FFF79EFF5F
:100D7000641CE4B22A5D002AF5D1BDE8F0810000D0
:100D800002464FF400710148FFF779BB000C0140A7
:100D900002464FF480710148FFF771BB000C01401F
:100DA00010B50446FFF7F9FE7820FFF7D9FE0020C2
:100DB000FFF7D6FE2046FFF7D3FEBDE81040FFF751
:100DC000FBBE10B50446FFF7E8FE7820FFF7C8FE2B
:100DD0004020FFF7C5FE2046FFF7C2FEBDE81040E9
:100DE000FFF7EABE704710B5FFF740FE012000F0A4
:100DF00045F8BDE81040002000F038B84FF48041BD
:100E00000148FFF737BB0000000C0140002000F054
:100E100035B8012000F032B82DE9F0410025074631
:100E20002E464FF0800800BF28FA06F414EA0700A7
:100E300000D0012000F012F8012000F017F8FFF7B1
:100E4000DDFF012800D12543002000F00FF8761CBB
:100E5000F6B2082EE8D32846BDE8F08102464FF4EA
:100E600000410148FFF70BBB000C014002464FF464
:100E700000510148FFF703BB000C014002464FF44C
:100E800080510148FFF7FBBA000C01407047FFF7A3
:100E900001BB30B58FB028216846FFF795F91421C2
:100EA0000AA8FFF791F901210804CDE900100024F8
:100EB000029402250491CDE907504FF4E010099007
:100EC0006846FFF72DFC08B172B6FEE70F20CDE9AA
:100ED0000A054FF48060CDE90C4002210AA80E9467
:100EE000FFF762FB002801D072B6FEE70FB030BDFD
:100EF0007047FEE7FFF777BF70B515460E4604460C
:100F000000F08EF8FFF782FF0220FFF785FFC4F3A1
:100F10000740FFF781FFC4F30720FFF77DFFE0B232
:100F2000FFF77AFF002404E0305DFFF775FF641CD3
:100F3000A4B2AC42F8D3FFF76CFFBDE8704000F0FC
:100F400059B870B515460E460446FFF75FFF0320FB
:100F5000FFF762FFC4F30740FFF75EFFC4F307200B
:100F6000FFF75AFFE0B2FFF757FF002404E0FF202D
:100F7000FFF752FF3055641CAC42F8D3BDE8704017
:100F8000FFF747BF70B50C460546FFF73FFF9F20B0
:100F9000FFF742FFFF20FFF73FFF2870FF20FFF71A
:100FA0003BFF4FF6FF7101EA00202080FF20FFF792
:100FB00033FF218808432080BDE87040FFF729BF38
:100FC00010B5044600F02CF8FFF720FF2020FFF7B3
:100FD00023FFC4F30740FFF71FFFC4F30720FFF709
:100FE0001BFFE0B2FFF718FFFFF713FFBDE810404B
:100FF000AFF3008010B5FFF709FF0520FFF70CFFE6
:10100000064C01E0641E04D0FF20FFF705FFC00777
:10101000F8D1BDE81040FFF7FCBE0000A08601003B
:1010200010B5FFF7F3FE0620FFF7F6FEBDE810400F
:10103000FFF7EFBE0907090E002804DB00F1E020EE
:1010400080F80014704700F00F0000F1E02080F8F5
:10105000141D7047FFF726FAFFF71BFFFFF706FD89
:10106000FFF7B6FDFFF746FF012130A20846FFF764
:1010700073FE31A201210220FFF76EFE2FA2012193
:101080000320FFF769FE2E49881EFFF77BFF2C4CDB
:101090000223A41E052122780120FFF73BFE042332
:1010A00062880C210120FFF735FE0020FFF788FF42
:1010B0000422211D0020FFF71FFF042204F1080174
:1010C0000020FFF73EFF241D02232278032118464B
:1010D000FFF720FE0223627806211846FFF71AFE6A
:1010E0000223A27809211846FFF714FE0223E278B2
:1010F0000C211846FFF70EFE241D0321227802233F
:101100000846FFF707FE6278022306210320FFF757
:1011100001FEA278022309210320FFF7FBFDE278FC
:1011200002230C210320FFF7F5FDFEE74D49443A69
:101130002020204449443A00573A0000523A000027
:10114000020000200000000000000000000000007D
:1011500000000000000000F8000000000000003364
:101160003000000000100C06100C0600000000000B
:101170000000000040C07840C0784000043F0404F4
:101180003F040400007088FC08300000001820FFB5
:10119000211E0000F008F000E018000000211C03F0
:1011A0001E211E0000F00888700000001E2123246C
:1011B0001927211010160E0000000000000000008A
:1011C00000000000000000E018040200000000071A
:1011D0001820400000020418E00000000040201821
:1011E00007000000404080F0804040000202010FF4
:1011F00001020200000000F0000000000101011FD8
:1012000001010100000000000000000080B070003B
:1012100000000000000000000000000000010101CB
:10122000010101010000000000000000003030005A
:101230000000000000000000806018040060180634
:101240000100000000E010080810E000000F10206E
:1012500020100F00001010F8000000000020203FB8
:101260002020000000700808088870000030282442
:1012700022213000003008888848300000182020E3
:1012800020110E000000C02010F800000007042408
:10129000243F240000F8088888080800001921204D
:1012A00020110E0000E0108888180000000F1120A7
:1012B00020110E0000380808C83808000000003F60
:1012C000000000000070880808887000001C2221BF
:1012D00021221C0000E010080810E000000031226C
:1012E00022110F00000000C0C0000000000000300C
:1012F000300000000000008000000000000080605E
:1013000000000000000080402010080000010204DE
:1013100008102000404040404040400004040404C5
:101320000404040000081020408000000020100881
:1013300004020100007048080808F00000000030B6
:1013400036010000C030C828E810E0000718272444
:1013500023140B000000C038E0000000203C2302F2
:101360000227382008F8888888700000203F202055
:1013700020110E00C0300808080838000718202087
:101380002010080008F808080810E000203F20207E
:1013900020100F0008F88888E8081000203F20205F
:1013A0002320180008F88888E8081000203F200053
:1013B00003000000C030080808380000071820208B
:1013C000221E020008F808000008F808203F21014A
:1013D00001213F20000808F8080800000020203FF5
:1013E0002020000000000808F8080800C080808065
:1013F0007F00000008F888C028180800203F20015E
:101400002638200008F8080000000000203F2020B7
:101410002020300008F8F800F8F80800203F003FCE
:10142000003F200008F830C00008F808203F2000E6
:1014300007183F00E01008080810E0000F102020F7
:1014400020100F0008F808080808F000203F2101CC
:1014500001010000E01008080810E0000F18242423
:1014600038504F0008F8888888887000203F200096
:10147000030C30200070880808083800003820214C
:1014800021221C00180808F8080818000000203F56
:101490002000000008F808000008F808001F2020BD
:1014A00020201F000878880000C83808000007388E
:1014B0000E010000F80800F80008F800033C0700DF
:1014C000073C0300081868808068180820302C0347
:1014D000032C30200838C800C83808000000203F1E
:1014E0002000000010080808C8380800203826210D
:1014F00020201800000000FE020202000000007F11
:1015000040404000000C30C000000000000000011E
:101510000638C00000020202FE0000000040404009
:101520007F0000000000040202020400000000002E
:1015300000000000000000000000000080808080AB
:101540008080808000020204000000000000000093
:10155000000000000000808080800000001924222C
:1015600022223F2008F8008080000000003F112068
:1015700020110E000000008080800000000E11206D
:1015800020201100000000808088F800000E11204B
:1015900020103F200000808080800000001F222259
:1015A00022221300008080F0888888180020203FC5
:1015B000202000000000808080808000006B9494D8
:1015C0009493600008F8008080800000203F210094
:1015D00000203F2000809898000000000020203F5D
:1015E00020200000000000809898000000C080804B
:1015F000807F000008F8000080808000203F2402E7
:101600002D302000000808F8000000000020203FD6
:10161000202000008080808080808000203F20008B
:101620003F20003F8080008080800000203F21001C
:1016300000203F200000808080800000001F2020CC
:1016400020201F00808000808000000080FFA120FB
:1016500020110E000000008080808000000E11200C
:1016600020A0FF80808080008080800020203F219B
:10167000200001000000808080808000003324244E
:1016800024241900008080E0808000000000001FFA
:10169000202000008080000000808000001F2020AB
:1016A00020103F20808080000080808000010E306C
:1016B0000806010080800080008080800F300C03CD
:1016C0000C300F0000808000808080000020312ED0
:1016D0000E312000808080000080808080818E70AC
:1016E0001806010000808080808080000021302C5E
:1016F0002221300000000000807C02020000000077
:10170000003F404000000000FF000000000000001B
:10171000FF0000000002027C800000000040403F0B
:1017200000000000000601010202040400000000A5
:1017300000000000010202030405060708090A0B65
:101740000C0D0E0F10100000000000000000010240
:1017500003040607080900007817000800000020AD
:101760001C00000028010008941700081C0000203D
:1017700064060000440100080000000001020304A8
:101780000000000001000000100000000000000048
:0417900000127A00C9
:04000005080000ED02
:00000001FF
